:020000040800F2
:1000000000060020B5050008451A0008C1190008BF
:10001000191A0008C1190008ED190008B7050008F1
:10002000B7050008B7050008B7050008C146000875
:10003000B7050008B7050008B7050008B7050008B0
:10004000B7050008B7050008B7050008B7050008A0
:10005000B7050008B7050008455D0008715D000898
:100060009D5D0008C95D0008F55D0008B705000842
:10007000B7050008B7050008B7050008B705000870
:10008000B7050008B7050008B7050008B705000860
:10009000B7050008B7050008B7050008215E00088D
:1000A000B7050008B7050008B7050008B705000840
:1000B000B7050008B7050008B7050008B705000830
:1000C000B7050008B7050008B7050008B705000820
:1000D000B70500080D5F0008B7050008B705000860
:1000E000855E0008B7050008B7050008B7050008D9
:1000F000B7050008B7050008B7050008B7050008F0
:10010000B7050008B7050008215F0008B70500081B
:10011000B7050008B7050008B7050008B7050008CF
:10012000B7050008B7050008B7050008B7050008BF
:10013000B7050008B7050008B7050008B7050008AF
:10014000B7050008B7050008B7050008B70500089F
:10015000B7050008B7050008B7050008B70500088F
:10016000B7050008B7050008B7050008B70500087F
:10017000B7050008E1530008B7050008B7050008F7
:10018000B7050008B7050008B7050008B70500085F
:10019000B7050008B7050008B7050008B70500084F
:1001A000B7050008B7050008B7050008B70500083F
:1001B000F95E0008B7050008B7050008B705000894
:1001C000B7050008B7050008B7050008B70500081F
:1001D000B7050008CD530008B7050008B7050008AB
:1001E000B7050008B7050008B7050008B7050008FF
:1001F000B7050008B7050008B7050008B7050008EF
:10020000B7050008B7050008B7050008B7050008DE
:10021000B7050008B7050008B7050008B7050008CE
:10022000B7050008B705000851480008B7050008E1
:10023000B7050008B7050008B7050008B7050008AE
:10024000B7050008B7050008B7050008B70500089E
:10025000B7050008B7050008B7050008B70500088E
:10026000B7050008B7050008B7050008B70500087E
:10027000B7050008B7050008B7050008B70500086E
:10028000B7050008B7050008B7050008B70500085E
:10029000B7050008B7050008B7050008B70500084E
:1002A0009D07000899190008B1240008000000000B
:1002B00053B94AB9002908BF00281CBF4FF0FF31CD
:1002C0004FF0FF3000F074B9ADF1080C6DE904CEC9
:1002D00000F006F8DDF804E0DDE9022304B0704721
:1002E0002DE9F047089D04468E46002B4DD18A42E9
:1002F000944669D9B2FA82F252B101FA02F3C2F11C
:10030000200120FA01F10CFA02FC41EA030E9440AC
:100310004FEA1C48210CBEFBF8F61FFA8CF708FBCD
:1003200016E341EA034306FB07F199420AD91CEBA5
:10033000030306F1FF3080F01F81994240F21C81D7
:10034000023E63445B1AA4B2B3FBF8F008FB10331F
:1003500044EA034400FB07F7A7420AD91CEB040454
:1003600000F1FF3380F00A81A74240F20781644424
:10037000023840EA0640E41B00261DB1D4400023A9
:10038000C5E900433146BDE8F0878B4209D9002D0D
:1003900000F0EF800026C5E9000130463146BDE897
:1003A000F087B3FA83F6002E4AD18B4202D3824201
:1003B00000F2F980841A61EB030301209E46002DB0
:1003C000E0D0C5E9004EDDE702B9FFDEB2FA82F205
:1003D000002A40F09280A1EB0C014FEA1C471FFA63
:1003E0008CFE0126200CB1FBF7F307FB131140EA4A
:1003F00001410EFB03F0884208D91CEB010103F117
:10040000FF3802D2884200F2CB804346091AA4B2D8
:10041000B1FBF7F007FB101144EA01440EFB00FEAC
:10042000A64508D91CEB040400F1FF3102D2A64511
:1004300000F2BB800846A4EB0E0440EA03409CE7B0
:10044000C6F12007B34022FA07FC4CEA030C20FA5D
:1004500007F401FA06F31C43F9404FEA1C4900FA7D
:1004600006F3B1FBF9F8200C1FFA8CFE09FB1811FA
:1004700040EA014108FB0EF0884202FA06F20BD96D
:100480001CEB010108F1FF3A80F08880884240F2BD
:100490008580A8F102086144091AA4B2B1FBF9F001
:1004A00009FB101144EA014100FB0EFE8E4508D9FC
:1004B0001CEB010100F1FF346CD28E456AD9023881
:1004C000614440EA0840A0FB0294A1EB0E01A14266
:1004D000C846A64656D353D05DB1B3EB080261EBD4
:1004E0000E0101FA07F722FA06F3F1401F43C5E9AE
:1004F000007100263146BDE8F087C2F12003D840E4
:100500000CFA02FC21FA03F3914001434FEA1C4725
:100510001FFA8CFEB3FBF7F007FB10360B0C43EA17
:10052000064300FB0EF69E4204FA02F408D91CEBC7
:10053000030300F1FF382FD29E422DD902386344C5
:100540009B1B89B2B3FBF7F607FB163341EA034165
:1005500006FB0EF38B4208D91CEB010106F1FF38B4
:1005600016D28B4214D9023E6144C91A46EA0046AB
:1005700038E72E46284605E70646E3E61846F8E63D
:100580004B45A9D2B9EB020864EB0C0E0138A3E786
:100590004646EAE7204694E74046D1E7D0467BE767
:1005A000023B614432E7304609E76444023842E7DF
:1005B000704700BF02E000F000F8FEE772B63A486C
:1005C00080F30888394880F3098839484EF6085185
:1005D000CEF20001086040F20000CCF200004EF6BE
:1005E0003471CEF200010860BFF34F8FBFF36F8FFD
:1005F00040F20000C0F2F0004EF68851CEF2000149
:100600000860BFF34F8FBFF36F8F4FF00000E1EE34
:10061000100A4EF63C71CEF200010860062080F30D
:100620001488BFF36F8F04F009F904F0ABF805F0FC
:1006300047F94FF055301F491B4A91423CBF41F8E2
:10064000040BFAE71C49194A91423CBF41F8040BDC
:10065000FAE71A491A4A1B4B9A423EBF51F8040B5B
:1006600042F8040BF8E700201749184A91423CBFB2
:1006700041F8040BFAE704F0C3F805F097F9144CBD
:10068000144DAC4203DA54F8041B8847F9E700F034
:100690004FF8114C114DAC4203DA54F8041B884753
:1006A000F9E704F0ABB800000006002000220020AB
:1006B0000000000800000020000600203867000845
:1006C00000220020C0220020C0220020D0490020AB
:1006D000A0020008AC020008AC020008AC0200084E
:1006E0002DE9F04F2DED108AC1F80CD0D0F80CD0C8
:1006F000BDEC108ABDE8F08F002383F311882846F3
:10070000A047002003F016FAFEE703F045F900DFEA
:10071000FEE70000054B10B504460360806810B189
:1007200003685B689847204610BD00BF1863000847
:1007300038B503F0EBFE054603F0B8FF0446F0B908
:10074000144B9D421DD001339D4241F2883512BFAA
:10075000044600250124002003F0E2FE0CB100F065
:100760009FF80D4C00F014FF00F0B0FD204601F0A2
:10077000D7FC40B944F6206003F0E2F9F6E7002523
:10078000E9E70546E7E7284600F046F900F088F873
:10079000F9E700BF010007B0C02200200448054B64
:1007A000054A036000230549836005F013BC00BFC0
:1007B000C022002018630008D0240020150700087C
:1007C00008B500F04FFDA0F120035842584108BD84
:1007D00007B5042101900DEB010000F061FD03B0AD
:1007E0005DF804FB07B541F21203022101A8ADF840
:1007F000043000F055FD03B05DF804FB38B520234C
:1008000083F311881748C3680BB103F031FA002352
:10081000154A4FF47A71134803F0EEF9002383F37D
:100820001188124C236813B12368013B236063686D
:1008300013B16368013B63600D4D2B7833B9636876
:100840007BB9022000F00EFE322363602B78032B6D
:1008500007D163682BB9022000F004FE4FF47A73CD
:10086000636038BD50230020FD0700086C24002081
:1008700064230020084B187003280CD8DFE800F030
:1008800008050208022000F0E5BD022000F0D8BDF6
:10089000024B00225A607047642300206C24002021
:1008A000F7B5564801A901F0B3FD002800F0A38078
:1008B000534B544A1C461968013100F099800433A7
:1008C0009342F8D16268504B9A4240F291804F4B6C
:1008D000DB6803F1104303F580139A4280F08880AF
:1008E000002000F00DFD0220FFF7C4FF484B00215F
:1008F000D3F8E820C3F8E810D3F81021C3F810119A
:10090000D3F81021D3F8EC20C3F8EC10D3F814215D
:10091000C3F81411D3F81421D3F8F020C3F8F01061
:10092000D3F81821C3F81811D3F81821D3F8802070
:1009300042F00062C3F88020D3F8802022F00062E9
:10094000C3F88020D3F88020D3F8802042F00072D2
:10095000C3F88020D3F8802022F00072C3F88020F2
:10096000D3F8803072B64FF0E023C3F8084DD4E9D5
:100970000004BFF34F8FBFF36F8F264AC2F8841075
:10098000BFF34F8F536923F480335361BFF34F8F0D
:10099000D2F8803043F6E076C3F3C905C3F34E3393
:1009A0005B0103EA060C29464CEA81770139C2F85B
:1009B0007472F9D2203B13F1200FF2D1BFF34F8FA5
:1009C000BFF36F8FBFF34F8FBFF36F8F536923F464
:1009D000003353610023C2F85032BFF34F8FBFF38F
:1009E0006F8F202383F31188854680F30888204782
:1009F000024801F06DF803B0F0BD00BFC022002036
:100A00000000109020001090FFFF0F9000220020A7
:100A10000044025800ED00E02DE9F04FA74B9FB0D5
:100A20002022FF21089016A89E68DB68079300F03B
:100A300059FDA34A1378A3B90121A2481170C360DC
:100A4000202383F31188C3680BB103F011F900234D
:100A50009D4A4FF47A719B4803F0CEF8002383F34C
:100A60001188089B13B1994B089A1A60984A137819
:100A7000032B03D000231370944A53600023089D76
:100A8000944F98469B46CDE90533012000F0E2FCE7
:100A900025B18E4B1B68002B00F06F83002000F007
:100AA000E1FB0E900E9B002BF2DB012000F0C8FC56
:100AB0000E9B213B162BE8D801A252F823F000BF71
:100AC0001D0B0008450B0008DF0B00088B0A00080F
:100AD0008B0A00088B0A0008BF0E0008BD10000832
:100AE000550F00083B10000861100008871000082F
:100AF0008B0A0008991000088B0A000805110008ED
:100B0000BD0B00088B0A000881110008730C000857
:100B1000A90D00088B0A0008B10F00080220FFF79A
:100B20004FFE002840F05583089B0221069A11A829
:100B3000002A08BF1D4641F21233ADF8443000F0E0
:100B4000AFFBA2E74FF47A7000F08CFB041EEBDBE6
:100B50000220FFF735FE0028E6D0013C052C00F20C
:100B60003A83DFE804F0030A0D101339052304214A
:100B700011A8119300F094FB17E004214F48F9E706
:100B800004215548F6E704215448F3E74FF01C09C7
:100B9000484609F1040900F0B5FB0421119011A8A1
:100BA00000F07EFBB9F12C0FF2D10120059B4FF034
:100BB000000B00FA04F41C43E3B2059300F0DEFCE2
:100BC000B8F1000F05D0059B03F00B030B2B08BFFA
:100BD0000025FFF707FE58E704214148CAE7B8F1AE
:100BE000000FA1D0059B03F00B030B2B9CD102201F
:100BF000FFF7E6FD0446002896D001204FF00008DC
:100C000000F07EFB0220FFF735FE5FFA88F94846C8
:100C100000F086FB054690B1484608F1010800F057
:100C20008FFB0028F1D10546069441F212130221F0
:100C300011A8A046ADF8443000F032FB25E72E465F
:100C4000DFF878800120FFF715FED8F80830B342AE
:100C500007D9304600F056FB013040F0BF82043621
:100C6000F3E700261A4BA04606941E70174B5E60F1
:100C7000A4E7B8F1000F3FF457AF059B03F00B0357
:100C80000B2B7FF451AF64210FA800F0FFFA8146CF
:100C900000287FF449AF0220FFF792FD04460028A8
:100CA0003FF442AF3A6A7B6A0F9953438DF837900D
:100CB0008B4219D20B4800F0DFFB35E70022002001
:100CC0006824002050230020FD0700086C24002029
:100CD00064230020C02200200422002008220020DB
:100CE0000C220020186100084FF4801AAC48C84656
:100CF000BAFBF2FA00F0C0FBFFF774FD01210DF121
:100D0000370000F0CDFA0F9B434541D9002310AACC
:100D100051463846CDE9103311AB00F0DDFE002816
:100D200083D000F097FE109B00EB030901210DF129
:100D3000370000F0B5FA00F08DFE484520D938465E
:100D400001F000F980B964210F9B96480AF1010A6D
:100D500001FB08F1B1FBF3F18DF83710C9B200F0D7
:100D60008BFB3B6A9844CEE700F074FE119B18445D
:100D700048453FF65AAF00F06DFE109B00EB0309AB
:100D8000109B4FF47A70A3FB000302F0D9FECDE76D
:100D9000642301210DF13700A0468DF8373000F0B3
:100DA0007FFA0023079309E7B8F1000F3FF4BCAEC8
:100DB000059B03F00B030B2B7FF4B6AE0220FFF76D
:100DC00059FD322000F04EFAB0F1000AFFF6ACAE49
:100DD000079BD14653440993734B099ADB689A42A7
:100DE0003FF6A2AEBAF5807F3FF79EAE6F4A002471
:100DF000A2450A920EDD4FF47A7000F033FA0E909D
:100E00000E9B002BFFF690AE0E9B01340A9A02F85F
:100E1000013BEDE7C820FFF7D3FC044600283FF470
:100E200083AE079B1F2B11D8C3F1200223F00300D0
:100E300016AB5E495245184428BF52460A9200F04C
:100E40001FFB0A9AFF21594800F04CFB00239846EB
:100E5000CDE91033079B03F580130B93B9F1000F15
:100E600002D1A046099B9DE711AB504A0B99384629
:100E7000029310AB4244414401930FAB00934B46A5
:100E800001F032FA00283FF4D0AE00F0E5FD0F9BF0
:100E900082460A919844A9EB030900F0DDFD109BFE
:100EA0000A9A13EB0A0342F10002834272EB010338
:100EB000F3D2384601F046F80028EED1CEE7B8F17B
:100EC000000F3FF431AE059B03F00B030B2B7FF4B7
:100ED0002BAE0220FFF7CEFC322000F0C3F9B0F1B8
:100EE000000AFFF621AE1AF003047FF41DAE2E4A6D
:100EF0000AEB0603926893423FF616AEBAF5807F7E
:100F00003FF712AEDFF8A490A2450DDD4FF47A70E2
:100F100000F0A8F90E900E9B002BFFF605AE0E9B7D
:100F2000013409F8013BEFE7C820FFF749FC04460C
:100F300000283FF4F9ADCAF387021C4930464FEA56
:100F4000AA0900F0D7FA804600283FF46EAE06EBFF
:100F5000890633E60220FFF733FC00283FF4E4ADB6
:100F600000F00AFA00283FF4DFAD4FF00009DFF887
:100F700038A04C46DAF808304B450CD9484609F100
:100F8000040900F0BFF90422119011A9204601F0D4
:100F9000B5FA0446EEE72046FFF71AFC0EE600BF5E
:100FA0003D610008556100080022002068230020F0
:100FB000642110A800F06AF9044600287FF4B4AD5B
:100FC0000220FFF7FDFB00283FF4AEAD109BA146C9
:100FD00003F0030A1099A1EB0A01A1421BD91F2CAF
:100FE00011D8169B01330ED024F003031EAA13441C
:100FF00053F8203C11934846042211A9043401F00F
:101000007DFA8146E6E7042311AA04F580113846EB
:1010100001F0B6F9EFE7BAF1000F0CD0534611AA70
:1010200001F58011384601F0ABF94846524611A946
:1010300001F064FA81464846AEE70023642111A816
:10104000119300F023F900287FF46EAD0220FFF722
:10105000B7FB00283FF468AD119800F083F99BE7D7
:101060000023642111A8119300F010F900287FF4E7
:101070005BAD0220FFF7A4FB00283FF455AD1198AB
:1010800000F072F988E70220FFF79AFB00283FF48E
:101090004BAD00F081F97FE70220FFF791FB0028BC
:1010A0003FF442AD11A9142000F07CF90990FFF73C
:1010B0008FFB099911A800F0F3F87FE5322000F0CA
:1010C000D1F8041EFFF630ADA3077FF42DAD444ADE
:1010D00004EB0B03926893423FF626AD0220FFF724
:1010E0006FFB00283FF420AD24F003045C44A345CB
:1010F0003FF464AD58460BF1040B00F003F9FFF721
:1011000067FBF4E74FF47A70FFF75AFB00283FF4CF
:101110000BAD00F031F980B1169B013328D011AB33
:1011200016AA4FF480113846029310AB01930FAB0F
:101130000093202301F0D8F808B9444675E500F083
:101140008BFC284E04460D4600F086FC109B1B19B4
:1011500045F10002834272EB0103F5D2304600F004
:10116000F1FE0028F0D12022FF2116A800F0BAF9E4
:10117000FFF738FB1C4802F0E3FC1FB0BDE8F08F1E
:10118000B8F1000F3FF4D0AC059B03F00B030B2B21
:101190007FF4CAAC0023642111A8119300F076F803
:1011A000044600287FF4C0AC0220FFF709FB81460B
:1011B00000283FF4B9ACFFF715FB41F2883002F08C
:1011C000BFFC119800F01EFAC846254600F0D6F97B
:1011D0005BE48046F2E44FF0000BA5E4069424E5BE
:1011E00000220020C0220020A0860100F7B50C4696
:1011F000184E4FF47A71054602FB01F396F9002070
:10120000501C0BD11448294601930268176A2246E4
:10121000B8478442019B03D1002310E0002AF1D09B
:1012200096F90020511C01D0012A0DD10B48294606
:101230000268166A2246B047844205D10123084A53
:101240000120137003B0F0BD4FF4FA7002F078FC87
:101250000020F7E710220020382B0020FC2400207B
:10126000B8240020002307B5024601210DF1070034
:101270008DF80730FFF7BAFF20B19DF8070003B0E3
:101280005DF804FB4FF0FF30F9E700000A46042147
:1012900008B5FFF7ABFF80F00100C0B2404208BDC7
:1012A000074B0A4630B41978064B53F821400146E3
:1012B00023682046DD69044BAC4630BC604700BF64
:1012C000B824002080610008A086010070B50A4E95
:1012D00000240A4D02F000FF3080286833888342E2
:1012E00008D902F0F5FE2B6804440133B4F5003F41
:1012F0002B60F2D370BD00BFBA24002074240020FC
:1013000002F09EBF00F1006000F5003000687047F9
:1013100000F10060920000F5003002F015BF0000FF
:10132000054B1A68054B1B889B1A834202D910444F
:1013300002F0CEBE0020704774240020BA240020A2
:1013400038B5074D04462868204402F0C7FE28B986
:1013500028682044BDE8384002F0C6BE38BD00BF52
:10136000742400200020704700F1FF5000F58F101A
:10137000D0F8000870470000064991F8243033B1D6
:1013800000230822086A81F82430FFF7C1BF01203A
:10139000704700BF78240020014B1868704700BFD9
:1013A0000010005C244BF0B51A680446234BC2F3CE
:1013B0000B06120C1F885868BE4293F9085028D0BB
:1013C0009F89BE4206D101200C2505FB00335868D9
:1013D00093F9085041F201039A421CD041F20303F1
:1013E0009A421AD042F201039A4218D042F2030301
:1013F0009A4208BF5625621E0B46441E0A44934279
:101400000FD214F9016F581C6EB1034600F8016C3D
:10141000F5E70020D8E75A25EDE75925EBE75825F1
:10142000E9E7184605E02C2482421C7001D9981C7B
:101430005D70401AF0BD00BF0010005C1422002057
:10144000022803D1024B4FF400229A61704700BF7B
:1014500000100258022802D1014B08229A617047FD
:1014600000100258022804D1024A536983F008038D
:1014700053617047001002580FB404B07047000069
:10148000002310B5934203D0CC5CC4540133F9E778
:1014900010BD0000013810B510F9013F3BB191F9C2
:1014A00000409C4203D11AB10131013AF4E71AB16C
:1014B00091F90020981A10BD1046FCE70138013957
:1014C00010F9013F11F9012F0BB19342F8D0981A8E
:1014D0007047000003460246D01A12F9011B00298A
:1014E000FAD1704702440346934202D003F8011B2D
:1014F000FAE770472DE9F8431F4D14460746884622
:1015000095F8242052BBDFF870909CB395F82430F6
:101510002BB92022FF2148462F62FFF7E3FF95F801
:1015200024004146C0F1080205EB8000A24228BF1A
:101530002246D6B29200FFF7A3FF95F82430A41BF1
:1015400017441E449044E4B2F6B2082E85F8246095
:10155000DBD1FFF711FF0028D7D108E02B6A03EB9E
:1015600082038342CFD0FFF707FF0028CBD10020B2
:10157000BDE8F8830120FBE778240020024B1A78AD
:10158000024B1A70704700BFB824002010220020C0
:1015900038B5164C164D204601F02EFC2946204643
:1015A00001F056FC2D681348D5F89020D2F8043885
:1015B00043F00203C2F8043802F0C2FA0E4928468A
:1015C00001F054FDD5F890200C48D2F804380C49AD
:1015D000A04223F00203C2F804384FF4E1330B6059
:1015E00003D0BDE8384001F065BB38BD382B002082
:1015F0008C64000840420F0094640008FC24002022
:10160000A024002038B50B4B04461A780A4B53F837
:1016100022500A4B9D420CD0094B0021182218463B
:10162000FFF760FF046001462846BDE8384001F03E
:1016300041BB38BDB824002080610008382B002051
:10164000A024002038B5084B0446154601754360B8
:101650000A21243002F098FF04F128002A460A21CA
:1016600002F092FF204638BD60630008F8B51E46C0
:101670001B6805460C4617461BB9236863B901244D
:1016800008E0BDF818203146806A02F095FF002876
:10169000F3D100242046F8BD21463A46686A02F09C
:1016A000C1FF04460028EAD13368002BF1D0A86AB4
:1016B00002F0ECFFEEE7000038B50D461146044697
:1016C0001A4611B1806A02F09FFF2DB12946606A67
:1016D000BDE8384002F0D2BF38BD000070470000BE
:1016E00070470000002070470020704713B56C461B
:1016F00000F1140384E8060094E8030083E8050081
:1017000002B010BD0020704713B56C4600F10C0309
:1017100084E8060094E8030083E8050002B010BDE9
:101720000023C0E90333704782B002AB03E906002F
:1017300002B07047704700000020704770470000FB
:1017400000207047002070470120704782B00020C1
:1017500002A901E90C0002B07047000000207047A8
:10176000002070470B6883634B6843638B68C363D7
:10177000CB6803640B6943647047000038B5036BA2
:101780000446154D1B7955F8330001F06BFFD4E981
:101790000B231B7955F8331002F130034968994245
:1017A00018D000231363E26A5363D4E90B12537C0D
:1017B000581E137C92681B0443EA002313438B6377
:1017C000D4E90B131B79303155F83300BDE83840AC
:1017D00001F0DCBE38BD00BFE4610008F8B51D4F64
:1017E00005460E4611463868FFF768FE78BB7468F8
:1017F0003B7924B394F82C209A420BD02468F8E764
:101800000122B521FFF71EFF736823603B797460E6
:1018100084F82C30482004F0E7FB68B10022027104
:10182000C0E90322C0E90522027A42F007020272EF
:10183000094AC0E90B47026028602846F8BD4020ED
:1018400004F0D2FB04460028DAD12C60F5E700232F
:101850002B60F2E7BC240020F4610008044B10B5B3
:1018600004460360406A08B104F0BCFB204610BD8A
:101870009861000810B50446FFF7F0FF204604F019
:10188000AFFB204610BD000008B519B1FFF776FF89
:10189000012008BD036B1A79024B53F8320001F0A6
:1018A000E5FEF5E7E46100082DE9FF41DDF8288059
:1018B0000546174603911FFA88F60293FFF75EFF6D
:1018C00002ABBAB203A9E86A0096FFF7CFFE04465E
:1018D00038B900212846FFF7D7FF204604B0BDE8FD
:1018E000F081AFB92B6B05F134011A79134B53F822
:1018F0003200B8F1000F19D101F056FE80F001045A
:10190000E4B23346E86ADDE90221FFF7D5FEE0E7FD
:10191000029B83B92B6B3A46084805F134011C79C8
:10192000039B50F8340001F055FEE7E7029B424666
:1019300001F066FEE2E70024E3E700BFE46100088F
:1019400013B504460191FFF719FF019A236B04F1C7
:1019500034011879054B53F8300001F067FE00217F
:101960002046FFF791FF012002B010BDE46100089E
:1019700010B50446FFF702FF236B1A79054B53F8A5
:10198000320001F061FE00212046FFF77DFF0120BB
:1019900010BD00BFE4610008064B0121064A1A6031
:1019A00000221A71054AC3E902124FF406721A8224
:1019B000704700BFBC24002088610008000E270784
:1019C00000B59BB0EFF3098168226846FFF758FD28
:1019D000EFF30583044B9A6BDA6A9A6A9A6A9A6AF9
:1019E0009A6A9A6A9B6AFEE700ED00E000B59BB038
:1019F000EFF3098168226846FFF742FDEFF30583A4
:101A0000044B9A6B9A6A9A6A9A6A9A6A9A6A9B6A69
:101A1000FEE700BF00ED00E000B59BB0EFF30981E9
:101A200068226846FFF72CFDEFF30583034B5A6BE2
:101A30009A6A9A6A9A6A9A6A9B6AFEE700ED00E0DF
:101A4000FEE70000FEE700000FB408B5029802F0C0
:101A500007F8FEE702F0FABC02F0D2BC80697047DA
:101A6000C0697047006A7047406A7047806A704773
:101A7000F0B5ADF2044D0E46054600214FF47F72DD
:101A800001A80091FFF72EFD2C6A744301362B6AE2
:101A90007343A34216D92B686A46214628465F68DD
:101AA0004FF48063B84770B16A464FF4806312F810
:101AB000011BFF290AD1013B9BB2002BF7D104F592
:101AC0008064E4E701200DF2044DF0BD0020FAE748
:101AD00080680368DB69184730B5456A85B00446FD
:101AE0008D420FD30568CDE90023026A03ABAD6ACE
:101AF0005143A84720B1206A039BC31A584258415A
:101B000005B030BD0020FBE7F0B5C56987B00446DD
:101B10008D4212D30C9F866905687143CDE9013768
:101B200005AB00936D69036AA84720B1A069059BC6
:101B3000C31A5842584107B0F0BD0020FBE700002F
:101B4000F0B5662389B0002405464FF4807680689E
:101B5000079403A9CDE90336CDE9054403685B6921
:101B60009847A86822462146036800941F692346C7
:101B7000B847A8689923079403A9CDE90336CDE9AE
:101B8000054403685B699847A868224621460368B4
:101B900000941D692346A84709B0F0BD254B2DE9E7
:101BA000F04F1B789FB0002504468DF828304FF089
:101BB0009F0E80684FF00123ADF8295005A90995C3
:101BC000CDE905E3CDE9075503685B699847A0684F
:101BD00003222946036800922A461E690AABB047D1
:101BE00028B394F88C20144B9DF8281003EBC20303
:101BF0001A7991421BD19DF829205B799A4216D11E
:101C0000A0684FF05A0C0D4B082605A90996CDE99E
:101C100005C3CDE9075503685B699847A0682A4664
:101C20002946036800961F690AABB84740B90020EF
:101C300048E100BF00610008F862000800250001CB
:101C40000422B1490AA804F0FFF905460028EED1A4
:101C5000BDF82C306FF48277A3813B44012BE6D88A
:101C6000079605A9CDE90A00A06803685B69984753
:101C7000A0682A462946036800961E690AABB04749
:101C80000028D4D0DDE90A361A0202F4706242EA72
:101C90001662FF2ACBD11B0E26F07F465022294622
:101CA000142B26610AA828BF1423A373FFF71AFC7C
:101CB000A068079605A903685B699847A068A37B9D
:101CC000294602689B0000930AAB16692A46B04772
:101CD0000028ACD00B990029A9DBC9086FF07E431E
:101CE000149D4FF0010E994228BF1946C5F3031306
:101CF0000EFA03F221FA03F303916161A261E36139
:101D0000002B94D02646A44600274FF002081EAAB6
:101D1000C7F3460302EB830353F834AC07F0010327
:101D20001B01DA1D0EFA03F908FA02F2A2EB09020E
:101D300002EA0A02DA401AD003F108090F330EFA58
:101D400002F2216A08FA03F30EFA09FBCCF83020FC
:101D50008A42A3EB0B0B0BEA0A0A2AFA09F98CF860
:101D60002C90A36A88BF2262934288BFA262013787
:101D70000CF1100C042FCAD1236A4FF0020C039A05
:101D80004FF0010E139F9A4224BFB2FBF3F1616240
:101D900007F00F0138BF01234FF0090201F10101E3
:101DA00038BF63624900336B33B3531C0EFA02F839
:101DB000A2F105090CFA03F30EFA09FAA3EB0803E2
:101DC00002F1FF380CFA08F83B40A8EB0A08D340B0
:101DD00008EA070828FA09F877D0012B77D0022BF8
:101DE00077D0032B08BF4FF47A735FFA88F808FBAB
:101DF000033373634B43B36307321036252AD2D1C2
:101E000015F0C04FC5F3417365D0012B65D0022B8F
:101E10000CBF4FF47A634FF47A43C5F3046202FBBC
:101E20000333E3664B432367199B9E0758D0062371
:101E300084F8743015F4005F05F00F03C5F3042532
:101E400014BF40220822013305FB02255B00A56771
:101E50005D430A9B9F02E5677FF5E9AE0C9B1A0A7A
:101E600084F88020C3F3421203F01F0384F8882013
:101E700084F88130189BC3F3025213F4401F84F896
:101E800083207FF4D4AEDE0602D5042A7FF4CFAEE1
:101E900003F40072002A14BF0122002284F8872074
:101EA00004D0DD0324D5002384F88930179B1A075A
:101EB00022D5002384F88630702384F885300123EE
:101EC00084F88D301FB0BDE8F08F01238DE710231B
:101ED0008BE7802389E710239FE74FF480739CE70B
:101EE000590701D55023A3E713F0780FA2D09EE63F
:101EF0009903DBD50123D7E75B07E0D5012384F8FD
:101F000086300523D9E700BF5462000830B58BB096
:101F100000240546806803924FF00122059105A92F
:101F2000CDE90624CDE90844026852699047A868C3
:101F30000121039B02680091214615692246A847AA
:101F40000BB030BD13B504460DF1070290F88510B3
:101F5000FFF7DCFF94F886309DF807001BB100F016
:101F6000010002B010BDC043C0F3C010F9E700008B
:101F700030B54FF001238BB00024054680688DF802
:101F80000F20059105A9CDE90634CDE90844036881
:101F90005B699847A86801220DF10F01036800945E
:101FA0001D692346A8470BB030BD0000F7B51746A2
:101FB0000DF1070206461D46FFF7A8FF68B19DF820
:101FC000074039469DF82020304624EA05042A407F
:101FD00022438DF80720FFF7CBFF03B0F0BD0000D0
:101FE00030B54FF4807389B00024054680680391B2
:101FF00003A9CDE90434CDE9064403685B69984739
:10200000A86822462146036800941D692346A84714
:1020100009B030BD10B5044623682046DB6A9847F6
:102020000028F9D110BD000010B590F874300446B6
:102030005BB1FFF7EFFF012394F87410204684F89A
:102040008E30BDE81040FFF7CBBF012010BD00006F
:1020500010B590F87430044653B1FFF7DBFF01234D
:102060002046042184F88E30BDE81040FFF7B8BF49
:10207000012010BD70B590F883308AB00446042B5F
:1020800048D10DF10E020521FFF740FF00282FD0A7
:102090000DF10F0235212046FFF738FF40B32046EF
:1020A0001E4EFFF7C1FF2046FFF7B4FF05AD0FCE70
:1020B0000FC5336805A99DF80E202B609DF80F30E1
:1020C000A06843F002038DF810208DF80F308DF8D2
:1020D000113003685B699847A068002304A902686F
:1020E000009315690222A84728B92046FFF7B0FFE0
:1020F00000200AB070BD2046FFF7AAFF0DF10F02C5
:1021000035212046FFF702FF0028F1D09DF80F305F
:102110009B07EDD501202071EBE700BF04610008AB
:102120002DE9F341002304468068A36010B10368E1
:102130005B6898470025244E244F56F8352001A8A7
:1021400039465FFA85F8FFF749FB019BA06800223A
:10215000A360019210B103685B689847019810B1C1
:1021600003685B689847A368DBB141F2883084F864
:102170008C8001F0E5FC2046FFF7E2FC1E2001F018
:10218000DFFC2046FFF70AFD054680B994F88C3045
:102190000F4856F83310FFF76FF9284602B0BDE834
:1021A000F0810135032DC8D10A48FFF74DFC2046C8
:1021B000FFF760FF94F88C30054656F8331008B9E5
:1021C0000548E8E70548E6E7F8620008D42400205F
:1021D0005C620008D262000886620008B0620008F3
:1021E0002DE9F041044688B00F461646FFF71CFF64
:1021F0002046FFF70FFF0025C722A0684FF4807329
:10220000079503A9CDE90323CDE9055503685B696B
:102210009847A0682A46294603680095D3F810809D
:102220002B46C047054630B92046FFF711FF284628
:1022300008B0BDE8F081E36E3B60236F3360F3E7E5
:102240002DE9F041002588B01F4604460E460E9B3E
:1022500000F1400CA8463D60016B81B1A9420ED34C
:1022600091420CD8B6FBF1FE01FB1E6139B9416BFE
:1022700090F82C800F9D1960816B296015461030F5
:102280006045E9D16DB3AB196269934229D8204604
:10229000FFF7CAFE2046FFF7BDFE4FF41453A068B7
:1022A00003A9CDF80C80CDE904360026CDE90666F9
:1022B00003685B699847A068324631460368009618
:1022C000D3F810803346C047064620462EB9FFF7A4
:1022D000BFFE304608B0BDE8F081FFF7B9FE3D60B3
:1022E000F7E70026F5E700002DE9F041866905468D
:1022F00088B00F46B3429046B1FBF6FC06FB1C1CAF
:1023000028BF3346A6EB0C0C00269C45644628BF2C
:102310001C46FFF789FE2846FFF77CFE0222A868CC
:1023200003A9164B0597CDE90323CDE9066603689B
:102330005B699847A86822464146036800961F6972
:102340003346B847064628462EB9FFF781FE304689
:1023500008B0BDE8F081FFF77BFE0E9B1C60AB6F01
:10236000AA696343B3FBF2F30F9A1360EA6F109B01
:102370005443AA69B4FBF2F41C60E8E700250001AD
:102380002DE9F04FCE18436989B004469E420F46AE
:10239000904634D83D464FF00009DFF870A0FFF7B3
:1023A00039FEAE422FD9A6EB050B94F8803094F895
:1023B000882003A9BBF5806F039394F8813028BF70
:1023C0004FF4806B012AA06808BF03F1FF33CDF8FA
:1023D00010A0CDE90559079303685B699847A06889
:1023E000A8EB07030268CDF800B02B44D2F810B078
:1023F00000221146D84718B105F58065D1E70020C5
:1024000009B0BDE8F08F0120FAE700BF00ED00033E
:10241000F0B5044689B00E46FFF7FCFD94F88750EE
:102420002DB194F889302BB1012B1DD00025284601
:1024300009B0F0BD94F880200392A52206921A4AB2
:10244000CDE9042394F88130A06803A907930368B9
:102450005B699847A068314603689B6998470546C1
:10246000642001F06DFBE2E720460027FFF7DCFD6A
:102470002046FFF7CFFD08238122852120460097C3
:10248000FFF794FD054618B92046FFF7E1FDCEE7BA
:1024900094F8803006970393044BCDE9043794F801
:1024A0008130013BD0E700BF00ED000300ED0013D9
:1024B000014B024A1A607047D42400204862000889
:1024C000036800211B68184703790BB100220271D1
:1024D0001846704703685B681847000003791BB90A
:1024E00001230371184670470020704770470000B1
:1024F00010B5044603F074FD204610BD30B50A4403
:10250000084D91420DD011F8013B5840082340F38B
:102510000004013B2C4013F0FF0384EA5000F6D185
:10252000EFE730BD2083B8ED38B5836904460D462A
:102530005B695A0118D543681B682BB105220270EC
:1025400098472378052B01D102232370202383F39E
:102550001188002104F1080001F00CFB002383F333
:102560001188E06902F038FAEB0704D50248BDE8AB
:10257000384001F075BA38BD7863000810B5044CD6
:10258000204600F0FBFF034A0023C4E9062310BDE8
:10259000DC2400200050005210B503780446012BC3
:1025A00017D1104B984214D102460F49102002F067
:1025B000DFF90E4BE061D3F8D42042F48042C3F837
:1025C000D420D3F8FC2042F48042C3F8FC20D3F896
:1025D000FC306268A36992685A60054A1A601B223F
:1025E000DA6010BDDC2400202925000800440258D0
:1025F0001500020183691B2210B5DA60D1E90020C1
:1026000012F44C4406D192011C61D86102F440429C
:102610005A6110BD0024104312F4406F1C61CC6855
:10262000DC61586101D08A689A619A689206FCD48C
:10263000EFE7000030B584691B25C069E5600068DC
:10264000836104F12003C36102234261013A036103
:102650004623C36016238362CB682261E361D1E91C
:102660000023134312F4406F636101D08B68A361B0
:10267000C36843F00103C36030BD000030B5D0E94A
:102680000640006804F120058561C36108234261AA
:10269000013A036146230D69C36016238362CB6848
:1026A0002261E361D1E90023134312F4406F43EA4E
:1026B000854343F08063636101D08B68A361C36885
:1026C00043F00103C36030BD8069036823F0040355
:1026D00010B5036000230361C3618361D1E9004346
:1026E0000969234343EA814343F04063436112B1E4
:1026F0004FF01043136010BD83691A6842F0020264
:102700001A601A689207FCD41A6842F004021A6030
:102710007047000083691B2210B5DA6004465B69CC
:102720005B011AD443681B682BB1052202709847DD
:102730002378052B01D102232370202383F31188F2
:10274000002104F1080001F015FA002383F3118839
:10275000E069BDE8104002F03FB910BD026843686F
:102760001143016003B1184770470000024A136823
:1027700043F0C003136070470010014013B50E4CC6
:10278000204600F08BFA04F1140000234FF400728D
:102790000A49009400F04CF9094B4FF400720949C2
:1027A00004F13800009400F0C5F9074A074BC4E96A
:1027B000172302B010BD00BFFC24002068250020B4
:1027C0006D270008682700200010014000E1F50592
:1027D000037C30B5244C002918BF0C46012B11D1C5
:1027E000224B98420ED1224BD3F8F02042F0100237
:1027F000C3F8F020D3F8182142F01002C3F81821D2
:10280000D3F818312268036EC16D03EB520384665E
:10281000B3FBF2F36268150442BF23F0070503F02F
:10282000070343EA4503CB60A36843F040034B60D2
:10283000E36843F001038B6042F4967343F00103B5
:102840000B604FF0FF330B62510505D512F01022DB
:1028500005D0B2F1805F04D080F8643030BD7F23B2
:10286000FAE73F23F8E700BF88630008FC24002054
:10287000004402582DE9F047C66D05463768F469F3
:102880002107346219D014F0080118BF8021E20733
:1028900048BF41F02001A3074FF0200348BF41F09B
:1028A0004001600748BF41F4807183F31188281DFF
:1028B000FFF754FF002383F31188E2050AD5202394
:1028C00083F311884FF40071281DFFF747FF0023A1
:1028D00083F311884FF020094FF0000A14F020080C
:1028E00038D13B0616D54FF0200905F1380A2006ED
:1028F00010D589F31188504600F050F9002836DAD7
:102900000821281DFFF72AFF27F0800333600023EA
:1029100083F31188790614D5620612D5202383F338
:102920001188D5E913239A4208D12B6C33B127F0D3
:1029300040071021281DFFF711FF3760002383F3A4
:102940001188E30618D5AA6E1369ABB15069BDE8CA
:10295000F047184789F31188736A284695F8641080
:10296000194000F0B5F98AF31188F469B6E7B0624E
:1029700088F31188F469BAE7BDE8F087F8B5154621
:10298000826804460B46AA4200D28568A16926697E
:10299000761AB5420BD218462A46FEF771FDA36996
:1029A0002B44A3612846A3685B1BA360F8BD0CD928
:1029B000AF1B18463246FEF763FD3A46E1683044E5
:1029C000FEF75EFDE3683B44EBE718462A46FEF758
:1029D00057FDE368E5E7000083689342F7B50446D6
:1029E000154600D28568D4E90460361AB5420BD288
:1029F0002A46FEF745FD63692B4463612846A368B8
:102A00005B1BA36003B0F0BD0DD93246AF1B019133
:102A1000FEF736FD01993A46E0683144FEF730FD95
:102A2000E3683B44E9E72A46FEF72AFDE368E4E76A
:102A300010B50A440024C361029B8460C160026136
:102A40000362C0E90000C0E9051110BD08B5D0E976
:102A50000532934201D1826882B982680132826074
:102A60005A1C426119700021D0E904329A4224BFF5
:102A7000C368436101F098F8002008BD4FF0FF30B3
:102A8000FBE7000070B5202304460E4683F311884F
:102A9000A568A5B1A368A269013BA360531CA3610B
:102AA00015782269934224BFE368A361E3690BB1FF
:102AB00020469847002383F31188284607E03146D3
:102AC000204601F061F80028E2DA85F3118870BD34
:102AD0002DE9F74F04460E4617469846D0F81C904D
:102AE0004FF0200A8AF311884FF0000B154665B1AC
:102AF0002A4631462046FFF741FF034660B941466A
:102B0000204601F041F80028F1D0002383F311881A
:102B1000781B03B0BDE8F08FB9F1000F03D001902E
:102B20002046C847019B8BF31188ED1A1E448AF397
:102B30001188DCE7C160C361009B82600362C0E969
:102B400005111144C0E9000001617047F8B5044661
:102B50000D461646202383F31188A768A7B1A36802
:102B6000013BA36063695A1C62611D70D4E90432A1
:102B70009A4224BFE3686361E3690BB1204698473A
:102B8000002080F3118807E03146204600F0FCFF6A
:102B90000028E2DA87F31188F8BD0000D0E90523A8
:102BA00010B59A4201D182687AB982680021013257
:102BB00082605A1C82611C7803699A4224BFC368F0
:102BC000836100F0F1FF204610BD4FF0FF30FBE7BE
:102BD0002DE9F74F04460E4617469846D0F81C904C
:102BE0004FF0200A8AF311884FF0000B154665B1AB
:102BF0002A4631462046FFF7EFFE034660B94146BC
:102C0000204600F0C1FF0028F1D0002383F3118893
:102C1000781B03B0BDE8F08FB9F1000F03D001902D
:102C20002046C847019B8BF31188ED1A1E448AF396
:102C30001188DCE7026843681143016003B118475B
:102C4000704700001430FFF743BF00004FF0FF3320
:102C50001430FFF73DBF00003830FFF7B9BF000068
:102C60004FF0FF333830FFF7B3BF00001430FFF7E9
:102C700009BF00004FF0FF311430FFF703BF000021
:102C80003830FFF763BF00004FF0FF323830FFF7F6
:102C90005DBF000000207047FFF770BD044B03606C
:102CA00000234360C0E9023301230374704700BF6F
:102CB000A063000810B52023044683F31188FFF7B2
:102CC00087FD02232374002383F3118810BD0000C5
:102CD00038B5C36904460D461BB904210844FFF703
:102CE000A9FF294604F11400FFF7B0FE002806DA18
:102CF000201D4FF48061BDE83840FFF79BBF38BD11
:102D0000026843681143016003B11847704700002F
:102D100013B5406B00F58054D4F8A4381A681178C4
:102D2000042914D1017C022911D1197901231289B6
:102D30008B4013420BD101A94C3002F099FCD4F81E
:102D4000A4480246019B2179206800F0DFF902B017
:102D500010BD0000143002F01BBC00004FF0FF3328
:102D6000143002F015BC00004C3002F0EDBC000045
:102D70004FF0FF334C3002F0E7BC0000143002F09B
:102D8000E9BB00004FF0FF31143002F0E3BB00005C
:102D90004C3002F0B9BC00004FF0FF324C3002F072
:102DA000B3BC00000020704710B500F58054D4F883
:102DB000A4381A681178042917D1017C022914D18A
:102DC0005979012352898B4013420ED1143002F0FD
:102DD0007BFB024648B1D4F8A4484FF440736179B4
:102DE0002068BDE8104000F07FB910BD406BFFF7D0
:102DF000DBBF0000704700007FB5124B01250426A1
:102E0000044603600023057400F1840243602946F0
:102E1000C0E902330C4B0290143001934FF440731D
:102E2000009602F02DFB094B04F69442294604F16A
:102E30004C000294CDE900634FF4407302F0F4FBC0
:102E400004B070BDC8630008ED2D0008112D000806
:102E50000A68202383F311880B790B3342F823008F
:102E60004B79133342F823008B7913B10B3342F8BB
:102E7000230000F58053C3F8A41802230374002331
:102E800083F311887047000038B5037F044613B1FF
:102E900090F85430ABB90125201D0221FFF730FF17
:102EA00004F114006FF00101257700F089FE04F1B0
:102EB0004C0084F854506FF00101BDE8384000F038
:102EC0007FBE38BD10B5012104460430FFF718FF5E
:102ED0000023237784F8543010BD000038B5044631
:102EE0000025143002F0E4FA04F14C00257702F0DA
:102EF000B3FB201D84F854500121FFF701FF204649
:102F0000BDE83840FFF750BF90F8803003F0600311
:102F1000202B06D190F881200023212A03D81F2AD4
:102F200006D800207047222AFBD1C0E91D3303E0F8
:102F3000034A426707228267C3670120704700BFC8
:102F40002C22002037B500F58055D5F8A4381A6832
:102F5000117804291AD1017C022917D1197901238A
:102F600012898B40134211D100F14C04204602F02B
:102F700033FC58B101A9204602F07AFBD5F8A448E9
:102F80000246019B2179206800F0C0F803B030BDF3
:102F900001F10B03F0B550F8236085B004460D46EF
:102FA000FEB1202383F3118804EB8507301D08212F
:102FB000FFF7A6FEFB6806F14C005B691B681BB1BE
:102FC000019002F063FB019803A902F051FB024655
:102FD00048B1039B2946204600F098F8002383F36C
:102FE000118805B0F0BDFB685A691268002AF5D057
:102FF0001B8A013B1340F1D104F18002EAE7000093
:10300000133138B550F82140ECB1202383F31188F7
:1030100004F58053D3F8A4281368527903EB820394
:10302000DB689B695D6845B104216018FFF768FEA5
:10303000294604F1140002F051FA2046FFF7B4FECD
:10304000002383F3118838BD7047000001F044BDB0
:1030500001234022002110B5044600F8303BFEF762
:1030600041FA0023C4E9013310BD000010B520234C
:10307000044683F311882422416000210C30FEF7BE
:1030800031FA204601F04AFD02232370002383F326
:10309000118810BD70B500EB8103054650690E46DE
:1030A0001446DA6018B110220021FEF71BFAA0695D
:1030B00018B110220021FEF715FA31462846BDE866
:1030C000704001F03DBE000083682022002103F023
:1030D000011310B5044683601030FEF703FA204652
:1030E000BDE8104001F0B8BEF0B4012500EB81044A
:1030F00047898D40E4683D43A469458123600023EE
:10310000A2606360F0BC01F0D5BE0000F0B4012500
:1031100000EB810407898D40E4683D4364690581C3
:1031200023600023A2606360F0BC01F04BBF00008D
:1031300070B5022300250446242203702946C0F8F6
:1031400088500C3040F8045CFEF7CCF9204684F837
:10315000705001F089FD63681B6823B12946204641
:10316000BDE87040184770BD037880F88C300523A7
:10317000037043681B6810B504460BB104219847DF
:103180000023A36010BD000090F88C2043680270FB
:103190001B680BB1052118477047000070B590F807
:1031A0007030044613B1002380F8703004F18002BF
:1031B000204601F075FE63689B68B3B994F88030CF
:1031C00013F0600535D00021204602F01FF90021E0
:1031D000204602F00FF963681B6813B106212046F0
:1031E0009847062384F8703070BD20469847002821
:1031F000E4D0B4F88630A26F9A4288BFA36794F9EE
:103200008030A56F002B4FF0200380F20381002D4A
:1032100000F0F280092284F8702083F311880021E5
:103220002046D4E91D23FFF771FF002383F31188A3
:10323000DAE794F8812003F07F0343EA022340F2A7
:103240000232934200F0C58021D8B3F5807F48D088
:103250000DD8012B3FD0022B00F09380002BB2D170
:1032600004F1880262670222A267E367C1E7B3F54F
:10327000817F00F09B80B3F5407FA4D194F8823029
:10328000012BA0D1B4F8883043F0020332E0B3F54B
:10329000006F4DD017D8B3F5A06F31D0A3F5C06340
:1032A000012B90D86368204694F882205E6894F8D9
:1032B0008310B4F88430B047002884D04368636733
:1032C0000368A3671AE0B3F5106F36D040F60242E8
:1032D00093427FF478AF5C4B63670223A3670023BC
:1032E000C3E794F88230012B7FF46DAFB4F88830D7
:1032F00023F00203A4F88830C4E91D55E56778E798
:10330000B4F88030B3F5A06F0ED194F88230204627
:1033100084F88A3001F006FD63681B6813B101214F
:1033200020469847032323700023C4E91D339CE7FC
:1033300004F18B0363670123C3E72378042B10D1C7
:10334000202383F311882046FFF7BEFE85F3118802
:103350000321636884F88B5021701B680BB12046F1
:10336000984794F88230002BDED084F88B30042309
:10337000237063681B68002BD6D002212046984733
:10338000D2E794F8843020461D0603F00F010AD5D9
:1033900001F078FD012804D002287FF414AF2B4BF4
:1033A0009AE72B4B98E701F05FFDF3E794F8823042
:1033B000002B7FF408AF94F8843013F00F01B3D0E2
:1033C0001A06204602D502F039F8ADE702F02AF8D5
:1033D000AAE794F88230002B7FF4F5AE94F884309D
:1033E00013F00F01A0D01B06204602D502F00EF804
:1033F0009AE701F0FFFF97E7142284F8702083F327
:1034000011882B462A4629462046FFF76DFE85F394
:103410001188E9E65DB1152284F8702083F31188E4
:1034200000212046D4E91D23FFF75EFEFDE60B22B6
:1034300084F8702083F311882B462A4629462046BB
:10344000FFF764FEE3E700BFF8630008F0630008DD
:10345000F463000838B590F870300446002B3ED075
:10346000063BDAB20F2A34D80F2B32D8DFE803F04C
:103470003731310822323131313131313131373761
:10348000856FB0F886309D4214D2C3681B8AB5FBA5
:10349000F3F203FB12556DB9202383F311882B46F9
:1034A0002A462946FFF732FE85F311880A2384F85D
:1034B00070300EE0142384F87030202383F31188D9
:1034C000002320461A461946FFF70EFE002383F319
:1034D000118838BDC36F03B198470023E7E7002187
:1034E000204601F093FF0021204601F083FF63682E
:1034F0001B6813B10621204698470623D7E7000032
:1035000010B590F870300446142B29D017D8062B2C
:1035100005D001D81BB110BD093B022BFBD80021FF
:10352000204601F073FF0021204601F063FF63682D
:103530001B6813B1062120469847062319E0152B76
:10354000E9D10B2380F87030202383F31188002306
:103550001A461946FFF7DAFD002383F31188DAE7EC
:10356000C3689B695B68002BD5D1C36F03B19847D3
:10357000002384F87030CEE7FFF700B80121002364
:103580000170C0E901330C3000F008BA10B52023F7
:10359000044683F311884160FEF7FEFF0223237087
:1035A000002383F3118810BD10B52023044683F354
:1035B0001188032304F8083BFFF71CF84FF0FF3194
:1035C000204600F0C9FA002383F31188C01A18BFFF
:1035D000012010BD38B50446202585F31188032548
:1035E00004F8085BFFF726F84FF0FF31204600F0A3
:1035F000B3FA002383F31188C01A18BF012038BD25
:1036000038B50446202585F31188042504F8085BA5
:10361000FFF734F84FF0FF31204600F09DFA002309
:1036200083F31188C01A18BF012038BD10B52023BC
:10363000044683F31188FFF747F80623237000231D
:1036400083F3118810BD000010B52023044683F3D6
:103650001188FFF751F802232370002383F31188A8
:1036600010BD00000C3000F0B5B900000C3000F0C7
:10367000BBB9000004480121044B03600023C0E9EA
:1036800001330C3000F08AB9682900208D580008F9
:10369000CB1D083A23F00703591A521A012110B41E
:1036A000D2080024C0E9004384600C301C605A60DA
:1036B0005DF8044B00F072B92DE9F84F364ECD1D80
:1036C0000F46002818BF0646082A4FEAD50538BF1E
:1036D000082206F10C08341D9146404600F07AF9A4
:1036E00009F10701C9F1000E224624686CB9404671
:1036F00000F07AF93368CBB308224946E8009847CE
:10370000044698B340E9026730E004EB010CD4F8BA
:1037100004A00CEA0E0C0AF10100ACF1080304EB62
:10372000C0009842E0D9A0EB0C0CB5EBEC0F4FEACF
:10373000EC0BD9D89C421CD204F10802AB45A3EB98
:1037400002024FEAE202626009D9691CED43206877
:1037500003EBC1025D44556043F8310022601C4612
:103760005F60404644F8086B00F03EF92046BDE833
:10377000F88FAA45216802D111602346EFE7013591
:1037800004EBC50344F8351003F10801401AC010DA
:1037900058601360F1E700BF68290020F8B550F8C1
:1037A000043C044650F8085CA0F1080607332F1DBE
:1037B0000C35DB0840F8043C284600F00BF93B468A
:1037C000BB421A6801D09E4228D90AB1964225D23E
:1037D00044F8082C54F8042C1E60013254F8081CDC
:1037E00006EBC200814206D14868024444F8042C2A
:1037F0000A6844F8082C5868411C03EBC1018E424A
:1038000007D154F8042C013202445A6054F8082CB1
:103810001A602846BDE8F84000F0E6B81346CFE746
:10382000024B0022C3E900339A60704780290020D0
:10383000002382680374054B1B6899689142FBD290
:103840005A68036042601060586070478029002009
:1038500008B5202383F31188027C0023052A06D8AB
:10386000DFE802F00B050503120E426913604FF00A
:10387000FF334361FFF7DCFF002383F3118808BDAA
:103880004269936801339360D0E9003213605A6053
:10389000EDE70000002382680374054B1B689968FC
:1038A0009142FBD85A6803604260106058607047CC
:1038B00080290020054B1969087418680268536054
:1038C0001A60186101230374FCF70ABF80290020E5
:1038D0004B1C30B5044687B00A4D10D02B6901A8A7
:1038E000094A00F089F92046FFF7E4FF049B13B171
:1038F00001A800F0BDF92B69586907B030BDFFF78A
:10390000D9FFF8E7802900205138000838B50C4D60
:10391000044641612B6981689A68914203D8BDE8E9
:103920003840FFF785BF1846FFF7B4FF01232C612D
:10393000014623742046BDE83840FCF7D1BE00BFE5
:1039400080290020044B1A681B6990689B68984284
:1039500094BF0020012070478029002010B5084C3A
:10396000236820691A6854602260012223611A7456
:10397000FFF790FF01462069BDE81040FCF7B0BE9C
:103980008029002008B5FFF7DDFF18B1BDE8084029
:10399000FFF7E4BF08BD0000FFF7E0BFC0E900008B
:1039A000816070478368013B002B10B583600DDA9E
:1039B000074C42682369586118605A60136043607D
:1039C0000520FFF777FF2369586910BD0020FCE749
:1039D0008029002008B5202383F31188FFF7E2FF38
:1039E000002383F3118808BD08B5202383F31188D1
:1039F00083680133002B836007DC036800211A68A9
:103A0000026050601846FFF781FF002383F311889E
:103A100008BD0000FEE7000010B50E4CFFF700FFE8
:103A200000F0DCF801F014FFFFF724FE80220A49C1
:103A3000204600F047F8012344F8180C037400F006
:103A40004FFE002383F3118862B60448BDE810409E
:103A500000F058B8A8290020FC6300080C64000896
:103A600008B572B6034B586200F0BCFC00F08AFD4A
:103A7000FEE700BF8029002000F034B9EFF3118089
:103A800020B9EFF30583202282F3118870470000EC
:103A900010B530B9EFF30584C4F3080414B180F312
:103AA000118810BDFFF76EFF84F31188F9E700005D
:103AB000034A516853685B1A9842FBD8704700BFAD
:103AC000001000E082600222028270478368A3F146
:103AD0007C0243F80C2C026943F83C2C426943F801
:103AE000382C074A43F81C2CC268A3F1180043F88D
:103AF000102C022203F8082C002203F8072C704730
:103B0000F906000810B5202383F31188FFF7DEFFC4
:103B100000210446FFF7FAFE002383F311882046B4
:103B200010BD0000024B1B6958610F20FFF7C2BE99
:103B300080290020202383F31188FFF7F3BF0000C2
:103B400008B50146202383F311880820FFF7C0FE43
:103B5000002383F3118808BD054B1B6921B1036065
:103B600058610320FFF7B4BE4FF0FF30704700BF2D
:103B70008029002003682BB1002202601846596199
:103B8000FFF756BE7047000049B1064B42681B69FB
:103B900018605A60136043600420FFF799BE4FF02D
:103BA000FF307047802900200368984206D01A68C9
:103BB0000260506018465961FFF73ABE7047000036
:103BC00038B504460D462068844200D138BD0368EC
:103BD00023605C604561FFF72BFEF4E7054B4FF077
:103BE000FF3103F11402C3E905220022C3E90712E1
:103BF000704700BF8029002070B51C4E05460C465A
:103C0000C0E9032301F01EFE334653F8142F9A42F5
:103C10000DD130620A2C2CBF00190A302A60C5E988
:103C20000124C6E90555BDE8704001F0F5BD316AD3
:103C3000431AE31838BF1C469368A34202D90819F7
:103C400001F0FAFD73699A6894420CD85A68AC6026
:103C50002B606A6015609A685D60121B9A604FF075
:103C6000FF33F36170BDA41A1B68ECE780290020C4
:103C700038B51B4C636998420DD08168D0E9003299
:103C800013605A600022C2609A680A449A604FF03A
:103C9000FF33E36138BD03682246002142F8143F38
:103CA00093425A60C16003D1BDE8384001F0BEBD07
:103CB0009A688168256A0A449A6001F0C3FD6369C5
:103CC000411B9A688A42E5D9AB181D1A206A092D52
:103CD00098BF01F10A02BDE83840104401F0ACBDC4
:103CE000802900202DE9F041184C002704F114062A
:103CF000656901F0A7FD236AAA68C11A8A4215D82E
:103D00001344D5F80C802362D5E9003213605A6061
:103D10006369EF60B34201D101F088FD87F3118838
:103D20002869C047202383F31188E1E76169B14224
:103D300009D013441B1ABDE8F0410A2B2CBFC01850
:103D40000A3001F079BDBDE8F08100BF8029002074
:103D500000207047FEE70000704700004FF0FF3082
:103D60007047000002290CD0032904D0012907481C
:103D700018BF00207047032A05D8054800EBC20091
:103D80007047044870470020704700BFF064000887
:103D90003C220020A464000870B59AB0054608468D
:103DA000144601A900F0C2F801A8FDF793FB431CDB
:103DB0000022C6B25B001046C5E90034237003231D
:103DC000023404F8013C01ABD1B202348E4201D876
:103DD0001AB070BD13F8011B013204F8010C04F88D
:103DE000021CF1E708B5202383F311880348FFF78D
:103DF000A9F8002383F3118808BD00BF382B0020E9
:103E000090F8803003F01F02012A07D190F881203A
:103E10000B2A03D10023C0E91D3315E003F0600332
:103E2000202B08D1B0F884302BB990F88120212ABA
:103E300003D81F2A04D8FFF767B8222AEBD0FAE785
:103E4000034A426707228267C3670120704700BFA9
:103E50003322002007B5052917D8DFE801F019162D
:103E600003191920202383F31188104A012101909E
:103E7000FFF710F9019802210D4AFFF70BF90D48E1
:103E8000FFF72CF8002383F3118803B05DF804FBDF
:103E9000202383F311880748FEF7F6FFF2E720237B
:103EA00083F311880348FFF70DF8EBE7446400083B
:103EB00068640008382B002038B50C4D0C4C2A469D
:103EC0000C4904F10800FFF767FF05F1CA0204F18D
:103ED00010000949FFF760FF05F5CA7204F11800E8
:103EE0000649BDE83840FFF757BF00BF1044002027
:103EF0003C220020246400082E6400083964000875
:103F000070B5044608460D46FDF7E4FAC6B22046F1
:103F1000013403780BB9184670BD32462946FDF7C7
:103F2000B9FA0028F3D10120F6E700002DE9F84F97
:103F300005460C46FDF7CEFA2B49C6B22846FFF7D8
:103F4000DFFF2A492846FFF7DBFF08B11036F6B23B
:103F5000632E0DD8DFF89080DFF89090244FDFF8C3
:103F600098A0DFF898B02E7846B92670BDE8F88F93
:103F700029462046BDE8F84F02F0BAB8252E2ED1CA
:103F8000072241462846FDF785FA70B9DBF8003074
:103F90000735073444F8073CBBF8043024F8033CE9
:103FA0009BF8063004F8013CDDE708224946284624
:103FB000FDF770FA98B9A21C0E4B19780232090964
:103FC000C95D02F8041C13F8011B01F00F015345F1
:103FD000C95D02F8031CF0D118340835C3E7013578
:103FE00004F8016BBFE700BF1065000839640008E2
:103FF0002065000800E8F11F0CE8F11F18650008B3
:10400000BFF34F8F044B1A695107FCD1D3F810212D
:104010005207F8D1704700BF0020005208B50D4B81
:104020001B78ABB9FFF7ECFF0B4BDA68D10704D56F
:104030000A4A5A6002F188325A60D3F80C21D2073A
:1040400006D5064AC3F8042102F18832C3F80421D8
:1040500008BD00BF6E4600200020005223016745C6
:104060004FF00063054A1968013104D104339342CB
:10407000F9D1012070470020704700BF00000208FE
:1040800008B5114B1B78F3B9104B1A69510703D5CA
:10409000DA6842F04002DA60D3F81021520705D501
:1040A000D3F80C2142F04002C3F80C21FFF7A8FF1F
:1040B000064BDA6842F00102DA60D3F80C2142F0D4
:1040C0000102C3F80C2108BD6E46002000200052FA
:1040D0004FF40030704700000120704708B9FFF727
:1040E000BFBF00207047000038B548BB154CFFF734
:1040F000C5FCFFF785FF0546FFF790FF4FF0FF3344
:104100006361C4F814312361FFF77AFF2423E3606D
:10411000E36843F08003E36023695B07FCD4FFF7A7
:104120006FFF4FF000604FF4003100F007FA2846AF
:10413000FFF7A6FFFFF7ACFCBDE83840FFF790BFE4
:10414000002038BD002000522DE9F84F40EA02035C
:1041500005460C461746D80602D00020BDE8F88F69
:1041600027F01F07DFF8D4B0FFF758FF2744BC4201
:1041700003D10120FFF784FFF0E7202229462046E3
:1041800001F062FF10B920352034F0E72B4605F12D
:1041900020021E68711CE0D104339A42F9D1FFF766
:1041A0006DFC05F17843234AB3F5801F224B28BFED
:1041B0009A4603F1040338BF9046A2F1080228BFD3
:1041C0009846A3F108033ABF9146DA469946FFF7AD
:1041D00017FFC8F80060A5EB040CD9F8002004F123
:1041E0001C0142F00202C9F80020221FDAF8006028
:1041F00016F00506FAD152F8043F8A424CF8023014
:10420000F4D1BFF34F8FFFF7FBFE4FF0FF32C8F83A
:104210000020D9F8002022F00202C9F80020FFF7A0
:1042200037FC20222146284601F00EFF0028AAD0A4
:1042300030469FE7142000521021005210200052F7
:1042400010B5084C237828B11BB9FFF7E7FE01230E
:10425000237010BD002BFCD02070BDE81040FFF78C
:104260000FBF00BF6E4600202DE9F74F0E460546F2
:10427000002864D011F0050763D139B90822294616
:104280003046FFF719FA0446002848D108224FF0BB
:104290000109DFF8C08006F00403DFF8BCA006EADD
:1042A000090BBBF1000F27D0D8F81410C80723D48E
:1042B00009F1010908F10C08B9F1060FF1D18FB924
:1042C000224E2946F0190092FFF7F6F9044630BB5A
:1042D0001837009A782FF4D12946FFF7EDF90446F4
:1042E000E8B9009A29461A48FFF7E6F9044608BBE0
:1042F000204603B0BDE8F08FABB1D8F8141011F030
:10430000040FD5D01820294600FB09A0CDE90023D1
:10431000FFF7D2F90446DDE900230028C8D02A4679
:104320000021204608E0B107ECD5D8F8141011F0B0
:10433000020FE6E72A460021FDF7D4F8D8E7044645
:10434000D6E71F35202225F01F05A0E7A046002054
:104350007046002034650008884600200021FFF7E1
:1043600083BF00000121FFF77FBF0000F8B5144DA7
:1043700001241827134E40F2FF3200210120FDF7DF
:10438000B1F807FB046001342A6955F80C1FFFF7E8
:104390007FF9062CF5D137254FF4C0542046FFF79E
:1043A000E1FF014628B122460748BDE8F840FFF783
:1043B0006FB9C4EBC404013D4FEAD404EED1F8BD9B
:1043C0003465000888460020704600200421FFF76D
:1043D0004BBF00004843FFF7C1BF000008B1FFF723
:1043E000DDB9704738B5054D00240334696855F8C8
:1043F0000C0B00F0B5F8122CF7D138BD346500086D
:1044000070B5104E82B0FFF739FB054601F01AFA7D
:10441000326803469042336037BF0B4A0A495168FD
:10442000146836BF0131D1E90041516004192846B2
:1044300041F100010191FFF72BFB2046019902B0E9
:1044400070BD00BF184700202047002070B5124EF5
:1044500082B0FFF713FB054601F0F4F9326803461A
:104460009042336037BF0D4A0C495168146836BF1B
:104470000131D1E9004151600419284641F10001A0
:104480000191FFF705FB4FF47A7200232046019952
:10449000FBF70EFF02B070BD184700202047002038
:1044A0000244074BD2B210B5904200D110BD441C5B
:1044B00000B253F8200041F8040BE0B2F4E700BF6B
:1044C000504000580E4B30B51C6F240405D41C6FAF
:1044D0001C671C6F44F400441C670A4C02442368A8
:1044E000D2B243F480732360074B904200D130BDB9
:1044F000441C51F8045B00B243F82050E0B2F4E7EA
:1045000000440258004802585040005807B50122A4
:1045100001A90020FFF7C4FF019803B05DF804FB78
:1045200013B50446FFF7F2FFA04205D0012201A90E
:1045300000200194FFF7C6FF02B010BD0144BFF395
:104540004F8F064B884204D3BFF34F8FBFF36F8F5B
:104550007047C3F85C022030F4E700BF00ED00E0D4
:104560000144BFF34F8F064B884204D3BFF34F8FF4
:10457000BFF36F8F7047C3F870022030F4E700BFBD
:1045800000ED00E07047000070B5054616460C4689
:1045900001201021FFF71EFF286046733CB1204622
:1045A00036B1FFF713FF2B68186000B19C6070BD37
:1045B000FFF7D8FEF7E7000070B50E461546044633
:1045C00000B30B6843608368934210D213B1006854
:1045D000FFF704FF637B28462BB1FFF7F7FE20604F
:1045E00020B9A06070BDFFF7BDFEF8E7A5602068A8
:1045F00005F11F01306021F01F01FFF79FFF01202F
:104600002073EFE70120EDE710B5044640B10068E4
:10461000884205D1606808B1FCF732FF002323739C
:1046200010BD000070B50E461546044620B38368E1
:10463000934210D213B10068FFF7D0FE637B284687
:104640002BB1FFF7C3FE206020B9A06070BDFFF75B
:1046500089FEF8E7A560316819B12A462068FCF7A1
:104660000FFF206805F11F01306021F01F01FFF7E7
:1046700077FF01202073E9E70120E7E720B1036815
:104680008B4204BF002303737047000008B100236E
:1046900003737047034B1A681AB9034AD2F8D0243F
:1046A0001A607047284700200040025808B5FFF7FD
:1046B000F1FF024B1868C0F3806008BD2847002056
:1046C000EFF30983054968334A6B22F001024A631C
:1046D00083F30988002383F31188704700EF00E01B
:1046E000202080F3118862B60D4B0E4AD96821F460
:1046F000E0610904090C0A430B49DA60D3F8FC2095
:1047000042F08072C3F8FC20084AC2F8B01F11685A
:1047100041F0010111601022DA7783F8220070471E
:1047200000ED00E00003FA0555CEACC5001000E036
:10473000202310B583F311880E4B5B6813F40063DC
:1047400014D0F1EE103AEFF309844FF08073683C17
:10475000E361094BDB6B236684F30988FFF7F2F80A
:1047600010B1064BA36110BD054BFBE783F3118825
:10477000F9E700BF00ED00E000EF00E00B070008E4
:104780000E07000870B5BFF34F8FBFF36F8F1A4A43
:104790000021C2F85012BFF34F8FBFF36F8F5369E0
:1047A00043F400335361BFF34F8FBFF36F8FC2F8F1
:1047B0008410BFF34F8FD2F8803043F6E074C3F318
:1047C000C900C3F34E335B0103EA0406014646EA1F
:1047D00081750139C2F86052F9D2203B13F1200FE4
:1047E000F2D1BFF34F8F536943F480335361BFF36A
:1047F0004F8FBFF36F8F70BD00ED00E0FEE700004C
:104800000A4B0B480B4A90420BD30B4BC11EDA1CD0
:10481000121A22F003028B4238BF00220021FCF75B
:1048200061BE53F8041B40F8041BECE7F86700086E
:10483000D0490020D0490020D04900207047000016
:1048400003681968596043680BB18068184770475E
:104850004FF0A44310B51C68E00702D52848FFF7C5
:10486000EFFFA10702D52748FFF7EAFF620702D54D
:104870002548FFF7E5FF230702D52448FFF7E0FFAF
:10488000E00602D52248FFF7DBFFA10602D521484A
:10489000FFF7D6FF620602D51F48FFF7D1FF2306B8
:1048A00002D51E48FFF7CCFFE00502D51C48FFF7F4
:1048B000C7FFA10502D51B48FFF7C2FF620502D55D
:1048C0001948FFF7BDFF230502D51848FFF7B8FFC9
:1048D000E00402D51648FFF7B3FFA10402D515483E
:1048E000FFF7AEFF620402D51348FFF7A9FF2304C8
:1048F00002D51248FFF7A4FFBDE81040FFF718BF2C
:10490000304700203C470020484700205447002003
:10491000604700206C470020784700208447002033
:10492000904700209C470020A8470020B447002063
:10493000C0470020CC470020D8470020E447002093
:1049400030B5094B0021094C10200725196054F897
:10495000042B0138C3E90121D16003F10C0311617B
:104960005560F4D130BD00BF2C4700207C650008A5
:104970000F28F0B50AD9102806D10F230020144CB7
:1049800001272568984203D900201DE00346F6E779
:1049900007FA00F6354218D10C233543434325600E
:1049A000181D2344C3E902120A4B2044D3F8D42033
:1049B00042F00102C3F8D420D3F8FC2042F00102F7
:1049C000C3F8FC20D3F8FC30F0BD0130DAE700BFBB
:1049D0002C470020004402580368D968DA68C907E8
:1049E00022F03F02DA6002D51A689207FCD507224E
:1049F0005A60704770B5D0E9244300224FF0FF356C
:104A00009E6804EB42135101D3F80009002805DA2F
:104A1000D3F8000940F08040C3F80009D3F8000B38
:104A2000002805DAD3F8000B40F08040C3F8000BF3
:104A3000013263189642C3F80859C3F8085BE0D204
:104A40004FF00113C4F81C3870BD000000EB810367
:104A5000D3F80CC02DE9F043DCF814204E1CD0F83C
:104A60009050D2F800E005EB063605EB411850688F
:104A700070450AD30122D5F8343802FA01F123EA4D
:104A80000101C5F83418BDE8F083AEEB0003BCF8B3
:104A90001040A34228BF2346D8F81849A4B2B3EB6C
:104AA000840FF0D89468A4F1040959F8047F3760A2
:104AB000A4EB09071F44042FF7D81C440344946057
:104AC0005360D4E7890141F02001016103699B062D
:104AD000FCD41220FEF7ECBF10B50A4C2046FEF7BE
:104AE000B7FA094BC4F89030084BC4F89430084C1E
:104AF0002046FEF7ADFA074BC4F89030064BC4F8D9
:104B0000943010BDF047002000000840E065000828
:104B10008C48002000000440EC65000870B5037864
:104B20000546012B5DD1494BD0F89040984259D1B0
:104B3000474B0E216520D3F8D82042F00062C3F81D
:104B4000D820D3F8002142F00062C3F80021D3F846
:104B50000021D3F8802042F00062C3F88020D3F80F
:104B6000802022F00062C3F88020D3F8803000F06B
:104B700071FC384BE360384BC4F800380023D5F89B
:104B80009060C4F8003EC02323604FF40413A36375
:104B90003369002BFCDA01230C203361FEF788FF18
:104BA0003369DB07FCD41220FEF782FF3369002B48
:104BB000FCDA00262846A660FFF71CFF6B68C4F8E5
:104BC0001068DB68C4F81468C4F81C68002B3AD17C
:104BD000224BA3614FF0FF336361A36843F00103ED
:104BE000A36070BD1E4B9842C8D1194B0E214D20B9
:104BF000D3F8D82042F00072C3F8D820D3F80021AF
:104C000042F00072C3F80021D3F80021D3F88020CD
:104C100042F00072C3F88020D3F8802022F00072A6
:104C2000C3F88020D3F88020D3F8D82022F0806207
:104C3000C3F8D820D3F8002122F08062C3F8002105
:104C4000D3F8003193E7074BC3E700BFF0470020DC
:104C5000004402584014004003002002003C30C0D1
:104C60008C480020083C30C0F8B5D0F8904005468C
:104C700000214FF000662046FFF724FFD5F894107E
:104C800000234FF001128F684FF0FF30C4F8343822
:104C9000C4F81C2804EB431201339F42C2F8006998
:104CA000C2F8006BC2F80809C2F8080BF2D20B6810
:104CB000D5F89020C5F89830636210231361166907
:104CC00016F01006FBD11220FEF7F2FED4F80038E1
:104CD00023F4FE63C4F80038A36943F4402343F08F
:104CE0001003A3610923C4F81038C4F814380B4B1F
:104CF000EB604FF0C043C4F8103B094BC4F8003BD5
:104D0000C4F81069C4F80039D5F8983003F11002DE
:104D100043F48013C5F89820A362F8BDBC65000871
:104D200040800010D0F8902090F88A10D2F8003817
:104D300023F4FE6343EA0113C2F800387047000011
:104D40002DE9F84300EB8103D0F890500C468046E3
:104D5000DA680FFA81F94801166806F00306731E37
:104D6000022B05EB41134FF0000194BFB604384EFF
:104D7000C3F8101B4FF0010104F1100398BF06F1B6
:104D8000805601FA03F3916998BF06F500460029A1
:104D90003AD0578A04F15801374349016F50D5F88A
:104DA0001C180B430021C5F81C382B180127C3F829
:104DB0001019A7405369611E9BB3138A928B9B08FD
:104DC000012A88BF5343D8F89820981842EA034331
:104DD00001F140022146C8F89800284605EB8202FE
:104DE0005360FFF76FFE08EB8900C3681B8A43EA34
:104DF000845348341E4364012E51D5F81C381F4398
:104E0000C5F81C78BDE8F88305EB4917D7F8001BF7
:104E100021F40041C7F8001BD5F81C1821EA030350
:104E2000C0E704F13F030B4A2846214605EB830304
:104E30005A60FFF747FE05EB4910D0F8003923F41C
:104E40000043C0F80039D5F81C3823EA0707D7E734
:104E50000080001000040002D0F894201268C0F80E
:104E60009820FFF7C7BD00005831D0F890304901B5
:104E70005B5813F4004004D013F4001F0CBF022051
:104E8000012070474831D0F8903049015B5813F445
:104E9000004004D013F4001F0CBF02200120704713
:104EA00000EB8101CB68196A0B6813604B68536093
:104EB0007047000000EB810330B5DD68AA69136814
:104EC000D36019B9402B84BF402313606B8A1468E8
:104ED000D0F890201C4402EB4110013C09B2B4FB15
:104EE000F3F46343033323F0030343EAC44343F07F
:104EF000C043C0F8103B2B6803F00303012B0ED115
:104F0000D2F8083802EB411013F4807FD0F8003B50
:104F100014BF43F0805343F00053C0F8003B02EB52
:104F20004112D2F8003B43F00443C2F8003B30BDCD
:104F30002DE9F041D0F8906005460C4606EB411390
:104F4000D3F8087B3A07C3F8087B08D5D6F814389D
:104F50001B0704D500EB8103DB685B689847FA0701
:104F60001FD5D6F81438DB071BD505EB8403D968A9
:104F7000CCB98B69488A5A68B2FBF0F600FB16225E
:104F80008AB91868DA6890420DD2121AC3E900246F
:104F9000202383F3118821462846FFF78BFF84F3F3
:104FA0001188BDE8F081012303FA04F26B8923EA3A
:104FB00002036B81CB68002BF3D021462846BDE865
:104FC000F041184700EB81034A0170B5DD68D0F865
:104FD00090306C692668E66056BB1A444FF4002096
:104FE000C2F810092A6802F00302012A0AB20ED19F
:104FF000D3F8080803EB421410F4807FD4F80009BA
:1050000014BF40F0805040F00050C4F8000903EB9A
:105010004212D2F8000940F00440C2F8000901220F
:10502000D3F8340802FA01F10143C3F8341870BD13
:1050300019B9402E84BF4020206020681A442E8A6F
:105040008419013CB4FBF6F440EAC44040F000503F
:10505000C6E700002DE9F041D0F8906004460D4607
:1050600006EB4113D3F80879C3F80879FB071CD580
:10507000D6F81038DA0718D500EB8103D3F80CC046
:10508000DCF81430D3F800E0DA6896451BD2A2EBC6
:105090000E024FF000081A60C3F80480202383F347
:1050A0001188FFF78FFF88F311883B0618D501237D
:1050B000D6F83428AB40134212D029462046BDE82A
:1050C000F041FFF7C3BC012303FA01F2038923EA8D
:1050D00002030381DCF80830002BE6D09847E4E7B0
:1050E000BDE8F0812DE9F84FD0F8905004466E6984
:1050F000AB691E4016F480586E6103D0BDE8F84FCE
:10510000FEF716B8002E12DAD5F8003E9F0705D03C
:10511000D5F8003E23F00303C5F8003ED5F8043867
:10512000204623F00103C5F80438FEF72DF83005BA
:1051300005D52046FFF75EFC2046FEF715F8B104C2
:105140000CD5D5F8083813F0060FEB6823F470532C
:105150000CBF43F4105343F4A053EB60320704D563
:105160006368DB680BB120469847F30200F1BA8010
:10517000B70226D5D4F8909000274FF0010A09EB2A
:105180004712D2F8003B03F44023B3F5802F11D12E
:10519000D2F8003B002B0DDA62890AFA07F322EA03
:1051A0000303638104EB8703DB68DB6813B13946D3
:1051B000204698470137D4F89430FFB29B689F424D
:1051C000DDD9F00619D5D4F89000026AC2F30A17A7
:1051D00002F00F0302F4F012B2F5802F00F0CC8041
:1051E000B2F5402F09D104EB8303002200F5805073
:1051F000DB681B6A974240F0B2803003D5F818583C
:1052000035D5E90303D500212046FFF791FEAA0317
:1052100003D501212046FFF78BFE6B0303D5022146
:105220002046FFF785FE2F0303D503212046FFF715
:105230007FFEE80203D504212046FFF779FEA9028C
:1052400003D505212046FFF773FE6A0203D5062128
:105250002046FFF76DFE2B0203D507212046FFF7FE
:1052600067FEEF0103D508212046FFF761FE7003BA
:1052700040F1A980E90703D500212046FFF7EAFEA7
:10528000AA0703D501212046FFF7E4FE6B0703D5EB
:1052900002212046FFF7DEFE2F0703D5032120461B
:1052A000FFF7D8FEEE0603D504212046FFF7D2FE15
:1052B000A80603D505212046FFF7CCFE690603D5D5
:1052C00006212046FFF7C6FE2A0603D50721204601
:1052D000FFF7C0FEEB0576D520460821BDE8F84F64
:1052E000FFF7B8BED4F8909000274FF0010AD4F829
:1052F00094305FFA87FB9B689B453FF639AF09EB1B
:105300004B13D3F8002902F44022B2F5802F24D1A8
:10531000D3F80029002A20DAD3F8002942F090427D
:10532000C3F80029D3F80029002AFBDB5946D4F83A
:105330009000FFF7C7FB22890AFA0BF322EA030366
:10534000238104EB8B03DB689B6813B1594620462D
:10535000984759462046FFF779FB0137C7E7910781
:1053600001D1D0F80080072A02F101029CBF03F8A6
:10537000018B4FEA18283DE704EB830300F58050CA
:10538000DA68D2F818C0DCF80820DCE9001CA1EBD0
:105390000C0C00218F4208D1DB689B699A683A4463
:1053A0009A605A683A445A6027E711F0030F01D116
:1053B000D0F800808C4501F1010184BF02F8018B17
:1053C0004FEA1828E6E7BDE8F88F000008B5034863
:1053D000FFF788FEBDE80840FFF7AAB9F0470020B4
:1053E00008B50348FFF77EFEBDE80840FFF7A0B907
:1053F0008C480020D0F8903003EB4111D1F8003BED
:1054000043F40013C1F8003B70470000D0F890301F
:1054100003EB4111D1F8003943F40013C1F800390E
:1054200070470000D0F8903003EB4111D1F8003BF9
:1054300023F40013C1F8003B70470000D0F890300F
:1054400003EB4111D1F8003923F40013C1F80039FE
:1054500070470000090100F16043012203F5614338
:10546000C9B283F8001300F01F039A4043099B0060
:1054700003F1604303F56143C3F880211A6070476C
:1054800030B50433039C0172002104FB0325C16085
:10549000C0E90653049B0363059BC0E90000C0E913
:1054A0000422C0E90842C0E90A11436330BD00008C
:1054B0000022416AC260C0E90411C0E90A226FF00B
:1054C0000101FEF77DBB0000D0E90432934201D117
:1054D000C2680AB9181D7047002070470369196037
:1054E0000021C2680132C260C269134482699342DA
:1054F000036124BF436A0361FEF756BB38B5044617
:105500000D46E3683BB162690020131D1268A36277
:105510001344E36207E0237A33B929462046FEF7B5
:1055200033FB0028EDDA38BD6FF00100FBE7000027
:10553000C368C269013BC3604369134482699342F3
:10554000436124BF436A436100238362036B03B159
:105550001847704770B52023044683F31188866A84
:105560003EB9FFF7CBFF054618B186F311882846F0
:1055700070BDA36AE26A13F8015B9342A36202D38F
:105580002046FFF7D5FF002383F31188EFE70000E3
:105590002DE9F84F04460E46174698464FF020096D
:1055A00089F311880025AA46D4F828B0BBF1000F72
:1055B00009D141462046FFF7A1FF20B18BF31188A6
:1055C0002846BDE8F88FD4E90A12A7EB050B521A5A
:1055D000934528BF9346BBF1400F1BD9334601F1D9
:1055E000400251F8040B914243F8040BF9D1A36A2D
:1055F000403640354033A362D4E90A239A4202D3AD
:105600002046FFF795FF8AF31188BD42D8D289F36F
:105610001188C9E730465A46FBF732FFA36A5E4459
:105620005D445B44A362E7E710B5029C043301725A
:1056300004FB0321C460C0E906130023C0E90A3358
:10564000039B0363049BC0E90000C0E90422C0E996
:105650000842436310BD0000026A6FF00101C2609E
:10566000426AC0E904220022C0E90A22FEF7A8BA71
:10567000D0E904239A4201D1C26822B9184650F8F1
:10568000043B0B607047002070470000C368002196
:10569000C2690133C3604369134482699342436121
:1056A00024BF436A4361FEF77FBA000038B5044661
:1056B0000D46E3683BB1236900201A1DA262E2692E
:1056C0001344E36207E0237A33B929462046FEF704
:1056D0005BFA0028EDDA38BD6FF00100FBE700004F
:1056E00003691960C268013AC260C26913448269E1
:1056F0009342036124BF436A036100238362036B07
:1057000003B118477047000070B520230D460446CA
:10571000114683F31188866A2EB9FFF7C7FF10B1CF
:1057200086F3118870BDA36A1D70A36AE26A013313
:105730009342A36204D3E16920460439FFF7D0FF06
:10574000002080F31188EDE72DE9F84F04460D465F
:10575000904699464FF0200A8AF311880026B346F6
:10576000A76A4FB949462046FFF7A0FF20B187F34B
:1057700011883046BDE8F88FD4E90A073A1AA8EB39
:105780000607974228BF1746402F1BD905F1400353
:1057900055F8042B9D4240F8042BF9D1A36A4036FA
:1057A0004033A362D4E90A239A4204D3E169204634
:1057B0000439FFF795FF8BF311884645D9D28AF358
:1057C0001188CDE729463A46FBF75AFEA36A3D44C5
:1057D0003E443B44A362E5E7D0E904239A4217D153
:1057E000C3689BB1836A8BB1043B9B1A0ED01360D4
:1057F000C368013BC360C3691A4483699A4202616A
:1058000024BF436A03610023836201231846704763
:105810000023FBE700F0F6B8034B002258631A613F
:105820000222DA60704700BF000C0040014B0022EA
:10583000DA607047000C0040014B5863704700BFAE
:10584000000C0040014B586A704700BF000C00403C
:10585000024B034A1A60034A5A60704740490020CD
:10586000D049002000000220074B494210B55C6877
:10587000201A08401968821A914203D8944201D331
:105880005A6010BD0020FCE74049002008B52023E5
:1058900083F31188FFF7E8FF002383F3118808BD25
:1058A0004B6843608B688360CB68C3600B6943615E
:1058B0004B6903628B6943620B68036070470000A9
:1058C00008B5354B40F2FF70D3F8E0100143C3F840
:1058D000E010D3F8082102433048C3F80821304AC9
:1058E000D3F808311146FFF7DBFF00F5806002F1C5
:1058F0001C01FFF7D5FF00F5806002F13801FFF7CA
:10590000CFFF00F5806002F15401FFF7C9FF00F5F9
:10591000806002F17001FFF7C3FF00F5806002F1C3
:105920008C01FFF7BDFF00F5806002F1A801FFF7D1
:10593000B7FF00F5806002F1C401FFF7B1FF00F589
:10594000806002F1E001FFF7ABFF00F5806002F13B
:10595000FC01FFF7A5FF02F58C7100F58060FFF7F1
:105960009FFF00F00BF90F4BD3F8902242F0010299
:10597000C3F89022D3F8942242F00102C3F8942293
:105980000522C3F898204FF06052C3F89C20064AC5
:10599000C3F8A02008BD00BF004402580000025810
:1059A000F865000800ED00E01F00080308B500F0EE
:1059B000EFFAFEF731F8104BD3F8DC2042F040024A
:1059C000C3F8DC20D3F8042122F04002C3F80421FC
:1059D000D3F80431094B1A6842F008021A601A68B9
:1059E00042F004021A60FEF755FEFEF7BFFCBDE868
:1059F0000840FEF761BA00BF004402580018024890
:105A000070470000114BD3F8E82042F00802C3F8B9
:105A1000E820D3F8102142F00802C3F810210C4A04
:105A2000D3F81031D36B43F00803D363C722094B7B
:105A30009A624FF0FF32DA6200229A615A63DA60AA
:105A40005A6001225A611A60704700BF0044025830
:105A50000010005C000C0040094A08B51169D368C9
:105A60000B40D9B29B076FEA0101116107D52023D2
:105A700083F31188FEF700F8002383F3118808BD33
:105A8000000C004008B53C4B4FF0FF31D3F88020AC
:105A900062F00042C3F88020D3F8802002F0004278
:105AA000C3F88020D3F88020D3F88420C3F8841072
:105AB000D3F884200022C3F88420D3F88400D86F60
:105AC00040F0FF4040F4FF0040F43F5040F03F0002
:105AD000D867D86F20F0FF4020F4FF0020F43F503B
