:020000040800F2
:1000000000060020E1010008150F0008950E000809
:10001000ED0E0008950E0008C10E0008E30100086F
:10002000E3010008E3010008E3010008E1280008FB
:10003000E3010008E3010008E3010008E301000810
:10004000E3010008E3010008E3010008E301000800
:10005000E3010008E301000895390008C1390008F0
:10006000ED390008193A0008453A0008E301000894
:10007000E3010008E3010008E3010008E3010008D0
:10008000E3010008E3010008E3010008E3010008C0
:10009000E3010008E3010008E3010008713A0008E9
:1000A000E3010008E3010008E3010008E3010008A0
:1000B000E3010008E3010008E3010008E301000890
:1000C000E3010008E3010008E3010008E301000880
:1000D000E3010008E3010008891000089D100008F2
:1000E000D93A0008E3010008E3010008E301000831
:1000F000E3010008E3010008E3010008E301000850
:10010000E3010008E301000805380008E3010008E6
:10011000E3010008E3010008E3010008E30100082F
:10012000E3010008E3010008E3010008E30100081F
:10013000E3010008E3010008E3010008E30100080F
:10014000E3010008E3010008E3010008193000089A
:10015000E3010008E3010008E3010008E3010008EF
:10016000E3010008E3010008E3010008E3010008DF
:10017000E3010008E3010008E3010008E3010008CF
:10018000E3010008E3010008B1100008E3010008E2
:10019000E3010008E3010008E3010008E3010008AF
:1001A000E3010008E3010008E3010008E30100089F
:1001B000E3010008E3010008E3010008E30100088F
:1001C000E3010008E3010008E3010008E30100087F
:1001D000E3010008E3010008E3010008E30100086F
:1001E00002E000F000F8FEE772B63A4880F30888B3
:1001F000394880F3098839484EF60851CEF200019B
:10020000086040F20000CCF200004EF63471CEF2ED
:1002100000010860BFF34F8FBFF36F8F40F2000003
:10022000C0F2F0004EF68851CEF200010860BFF334
:100230004F8FBFF36F8F4FF00000E1EE100A4EF6C4
:100240003C71CEF200010860062080F31488BFF3F1
:100250006F8F02F0C5FB02F0A1FB03F033FA4FF001
:1002600055301F491B4A91423CBF41F8040BFAE745
:100270001C49194A91423CBF41F8040BFAE71A495C
:100280001A4A1B4B9A423EBF51F8040B42F8040B2A
:10029000F8E700201749184A91423CBF41F8040B87
:1002A000FAE702F07FFB03F061FA144C144DAC4204
:1002B00003DA54F8041B8847F9E700F041F8114CC1
:1002C000114DAC4203DA54F8041B8847F9E702F0F9
:1002D00067BB00000006002000220020000000088C
:1002E0000000002000060020783F000800220020C7
:1002F000402200204022002020350020E00100089C
:10030000E0010008E0010008E00100082DE9F04FDD
:100310002DED108AC1F80CD0C3689D46BDEC108A43
:10032000BDE8F08F002383F311882846A047002002
:1003300001F0CAFEFEE701F045FE00DFFEE7000027
:1003400038B502F0A1FA40B1174B6FF03F0100221F
:1003500059720F211A729972DA7202F07BFA05460D
:1003600002F0B4FA0446D8B9104B9D421AD00133BA
:100370009D4218BF044641F2883504BF0124002580
:10038000002002F071FA0CB100F078F800F028FDBE
:1003900000F0B6FB284600F0C1F800F06FF8F9E76E
:1003A0000025EDE70546EBE700220020010007B03D
:1003B00008B500F071FBA0F120035842584108BD78
:1003C00007B541F21203022101A8ADF8043000F094
:1003D00081FB03B05DF804FB38B5202383F311885B
:1003E0001748C3680BB101F0F5FE164A1448002304
:1003F0004FF47A7101F0B2FE002383F31188124C9E
:10040000236813B12368013B2360636813B16368F9
:10041000013B63600D4D2B7833B963687BB90220D3
:1004200000F058FC322363602B78032B07D16368FC
:100430002BB9022000F04EFC4FF47A73636038BD94
:1004400040220020D90300085C2300205422002011
:10045000084B187003280CD8DFE800F008050208E4
:10046000022000F02DBC022000F020BC024B002234
:100470005A607047542200205C230020234B244AFA
:1004800010B51C46196801313FD004339342F9D1AD
:100490006268A24239D31F4B9B6803F1006303F5E6
:1004A00080439A4231D2002000F044FB0220FFF743
:1004B000CFFF194B1A6C00221A64196E1A66196E56
:1004C000596C5A64596E5A665A6E5A6942F08002E3
:1004D0005A615A6922F080025A615A691A6942F0D7
:1004E00000521A611A6922F000521A611B6972B631
:1004F0004FF0E0232021C3F8084DD4E9003281F306
:1005000011889D4683F30888104710BD00400008FD
:100510002040000800220020003802402DE9F04F62
:1005200093B0A94B00902022FF210AA89D6800F0FB
:1005300001FCA64A1378A3B9A5480121C360117034
:10054000202383F31188C3680BB101F043FEA14A55
:100550009F4800234FF47A7101F000FE002383F3DB
:100560001188009B13B19C4B009A1A609B4A009C17
:100570001378032B1EBF00231370974A4FF0000A15
:1005800018BF5360D3465646D146012000F098FB71
:1005900024B1914B1B68002B00F00F82002000F06B
:1005A0007BFA0390039B002BF2DB012000F07EFB23
:1005B000039B213B162BE8D801A252F823F000BF81
:1005C0001D06000845060008D90600088B0500082E
:1005D0008B0500088B050008610700082F0900083B
:1005E00049080008AB080008D3080008F90800080B
:1005F0008B0500080B0900088B0500087D09000821
:10060000BD0600088B050008C1090008290600087E
:10061000BD0600088B050008AB0800080220FFF7A4
:10062000C7FE002840F0F381009B0221BAF1000FC1
:1006300008BF1C4605A841F21233ADF8143000F093
:1006400049FAA2E74FF47A7000F026FA071EEBDBB6
:100650000220FFF7ADFE0028E6D0013F052F00F293
:10066000D881DFE807F0030A0D1013360523059340
:10067000042105A800F02EFA17E053480421F9E7F9
:1006800057480421F6E757480421F3E74FF01C08C8
:10069000404600F051FA08F104080590042105A82D
:1006A00000F018FAB8F12C0FF2D1012000FA07F788
:1006B00047EA0B0B5FFA8BFB4FF0000900F086FB5B
:1006C00026B10BF00B030B2B08BF0024FFF778FEBD
:1006D0005BE745480421CDE7002EA5D00BF00B03C6
:1006E0000B2BA1D10220FFF763FE074600289BD009
:1006F000012000F01FFA0220FFF7AAFE00265FFA91
:1007000086F8404600F026FA044688B1404600F0DC
:1007100031FA01360028F2D1BA46044641F21213EA
:10072000022105A8ADF814303E4600F0D3F92CE7BD
:100730000120FFF78DFE2546234B9B68AB4207D96E
:10074000284600F0F9F9013040F066810435F3E7FE
:10075000224B00251D70204BBA465D603E46ADE73A
:10076000002E3FF461AF0BF00B030B2B7FF45CAF5B
:100770000220FFF76DFE322000F08EF9B0F1000884
:10078000FFF652AF18F003077FF44EAF0E4A92689F
:1007900008EB050393423FF647AFB8F5807F3FF77C
:1007A00043AF124B0193B84522DD4FF47A7000F04D
:1007B00073F90390039A002AFFF636AF019B039A60
:1007C00003F8012B0137EDE7002200205823002019
:1007D00040220020D90300085C230020542200207E
:1007E00004220020082200200C2200205822002091
:1007F000C820FFF7DDFD074600283FF415AF1F2D89
:1008000011D8C5F1200242450AAB25F0030028BFEC
:10081000424683490192184400F066FA019A8048E2
:10082000FF2100F087FA4FEAA8037D490193C8F33E
:100830008702284600F086FA064600283FF46EAF8D
:10084000019B05EB830539E70220FFF7B1FD002886
:100850003FF4EAAE00F0B8F900283FF4E5AE002717
:10086000B846704B9B68BB4218D91F2F11D80A9B02
:1008700001330ED027F0030312AA134453F8203C8F
:1008800005934046042205A900F046FB0437804644
:10089000E7E7384600F050F90590F2E7CDF814800C
:1008A000042105A800F016F908E70023642104A834
:1008B000049300F005F900287FF4B6AE0220FFF79C
:1008C00077FD00283FF4B0AE049800F065F905907C
:1008D000E6E70023642104A8049300F0F1F800285F
:1008E0007FF4A2AE0220FFF763FD00283FF49CAE28
:1008F000049800F061F9EAE70220FFF759FD0028AB
:100900003FF492AE00F070F9E1E70220FFF750FDEE
:1009100000283FF489AE05A9142000F06BF90421EA
:100920000746049004A800F0D5F83946B9E732200C
:1009300000F0B2F8071EFFF677AEBB077FF474AE87
:10094000384A926807EB090393423FF66DAE0220E6
:10095000FFF72EFD00283FF467AE27F003074F4452
:10096000B9453FF4ABAE484600F0E6F804210590E7
:1009700005A800F0AFF809F10409F1E74FF47A7027
:10098000FFF716FD00283FF44FAE00F01DF90028D8
:1009900044D00A9B01330BD008220AA9002000F0A2
:1009A000D1F900283AD02022FF210AA800F0C2F98C
:1009B000FFF706FD1C4801F08DFB13B0BDE8F08F7A
:1009C000002E3FF431AE0BF00B030B2B7FF42CAE5B
:1009D0000023642105A8059300F072F8074600285B
:1009E0007FF422AE0220FFF7E3FC804600283FF4AC
:1009F0001BAEFFF7E5FC41F2883001F06BFB059878
:100A000000F028FA464600F0E1F93C46BDE506460E
:100A100054E64FF0000907E6BA467FE637467DE622
:100A20005822002000220020A08601002DE9F84F66
:100A30004FF47A73DFF85880DFF8589006460D4679
:100A400002FB03F7002498F900305A1C5FFA84FA7D
:100A500001D0A34210D159F8240003682A46D3F8E4
:100A600020B031463B46D847854205D1074B01208F
:100A700083F800A0BDE8F88F0134042CE3D14FF4D3
:100A8000FA7001F027FB0020F4E700BFA423002048
:100A900010220020383C000807B50023024601213F
:100AA0000DF107008DF80730FFF7C0FF20B19DF86A
:100AB000070003B05DF804FB4FF0FF30F9E70000DA
:100AC0000A4608B50421FFF7B1FF80F00100C0B26B
:100AD000404208BD30B4074B0A461978064B53F81C
:100AE00021402368DD69054B0146AC46204630BCF9
:100AF000604700BFA4230020383C0008A086010006
:100B000070B501F093FD094E094D3080002428682E
:100B10003388834208D901F083FD2B6804440133F4
:100B2000B4F5804F2B60F2D370BD00BFA623002028
:100B30006423002001F042BE00F1006000F5804017
:100B40000068704700F10060920000F5804001F0FD
:100B5000C1BD0000054B1A68054B1B889B1A8342D8
:100B600002D9104401F05CBD0020704764230020CE
:100B7000A623002038B5074D04462868204401F01C
:100B800057FD28B928682044BDE8384001F068BD09
:100B900038BD00BF6423002010F003030AD1B0F574
:100BA000047F05D200F10050A0F51040D0F80038C5
:100BB000184670470023FBE700F10050A0F51040F5
:100BC000D0F8100A70470000064991F8243033B17C
:100BD0000023086A81F824300822FFF7B3BF012000
:100BE000704700BF68230020014B1868704700BFA2
:100BF000002004E070B52A4B1B68C3F30B020446C7
:100C00001B0C62B140F21340824230D040F21940D6
:100C100082422ED040F2214082422CD10322214D2B
:100C20000C2000FB0252556842F20102934224D08C
:100C3000B3F5805F23D041F20102934221D041F20B
:100C4000030293421FD041F20702934214BF3F2395
:100C50003123013C0C44013D0A46A24215D215F94C
:100C6000016F501C9EB100F8016C0246F5E70122AD
:100C7000D5E70222D3E70C4DD6E73323E9E741233A
:100C8000E7E75A23E5E75923E3E7104605E02C257B
:100C90008442157001D9901C5370401A70BD00BF7A
:100CA000002004E0083C0008DC3B0008022802BFEA
:100CB000024B4FF480729A61704700BF00000240FF
:100CC000022802BF024B4FF080729A61704700BF4A
:100CD00000000240022801BF024A536983F4807376
:100CE000536170470000024010B50023934203D0C7
:100CF000CC5CC4540133F9E710BD000010B50138D5
:100D000010F9013F3BB191F900409C4203D11AB167
:100D10000131013AF4E71AB191F90020981A10BD97
:100D20001046FCE703460246D01A12F9011B0029BF
:100D3000FAD1704702440346934202D003F8011BE4
:100D4000FAE770472DE9F8431F4D144695F8242023
:100D50000746884652BBDFF870909CB395F8243064
:100D60002BB92022FF2148462F62FFF7E3FF95F8B9
:100D70002400C0F10802A24228BF2246D6B2414652
:100D8000920005EB8000FFF7AFFF95F82430A41B1D
:100D90001E44F6B2082E17449044E4B285F824604D
:100DA000DBD1FFF711FF0028D7D108E02B6A03EB56
:100DB00082038342CFD0FFF707FF0028CBD100206A
:100DC000BDE8F8830120FBE768230020024B1A7876
:100DD000024B1A70704700BFA4230020102200208D
:100DE000F8B5164C1648174E174D154F00F088FCF5
:100DF0002146134800F0B0FC24681448626D936BE0
:100E000023F40023936301F065F92046104900F0B4
:100E1000A9FD626D936B43F4002393634FF4E133B8
:100E20003360042455F8040BB84202D0314600F078
:100E3000C7FB013C14F0FF04F4D1F8BD483D0008A5
:100E4000982C002090230020383C000840420F00DE
:100E5000503D000838B50B4B1A780B4B53F8225015
:100E60000A4B9D4204460CD0094B0021184614221F
:100E7000FFF760FF046001462846BDE8384000F0F7
:100E80009FBB38BDA4230020383C0008982C0020CC
:100E90009023002000B59BB0EFF3098168226846DB
:100EA000FFF722FFEFF30583044B9A6BDA6A9A6A25
:100EB0009A6A9A6A9A6A9A6A9B6AFEE700ED00E06B
:100EC00000B59BB0EFF3098168226846FFF70CFF7D
:100ED000EFF30583044B9A6B9A6A9A6A9A6A9A6A44
:100EE0009A6A9B6AFEE700BF00ED00E000B59BB088
:100EF000EFF3098168226846FFF7F6FEEFF30583FA
:100F0000034B5A6B9A6A9A6A9A6A9A6A9B6AFEE7D4
:100F100000ED00E0FEE7000030B5094D0A449142C3
:100F20000DD011F8013B5840082340F30004013B69
:100F30002C4013F0FF0384EA5000F6D1EFE730BDF8
:100F40002083B8ED026843681143016003B118477C
:100F500070470000024AD36843F0C003D360704773
:100F600000440040024AD36843F0C003D360704796
:100F700000480040024AD36843F0C003D360704782
:100F8000007800402DE9F041D0F85C62F7683368E2
:100F9000DA0504469DB20DD5202383F311884FF462
:100FA00000710430FFF7CEFF6FF4807333600023CD
:100FB00083F31188202383F3118804F1040815F0CA
:100FC0002F033AD183F31188380615D5290613D596
:100FD000202383F3118804F1380000F04FFA002831
:100FE0004DDA0821201DFFF7ADFF4FF67F733B4020
:100FF000F360002383F311887A0616D56B0614D5A7
:10100000202383F31188D4E913239A420AD1236C55
:1010100043B127F040073F041021201D3F0CFFF78C
:1010200091FFF760002383F31188D4F86422D3681A
:101030003BB3BDE8F041106918472B0713D015F0FA
:10104000080F0CBF00218021E80748BF41F02001B4
:10105000AA0748BF41F040016B0748BF41F48071C7
:101060004046FFF76FFFAD06736805D594F8601230
:101070002046194000F0B2FA3568ADB29FE77060C3
:10108000B7E7BDE8F081000008B50348FFF77AFF35
:10109000BDE8084001F058BCA823002008B503486B
:1010A000FFF770FFBDE8084001F04EBC102600209D
:1010B00008B50348FFF766FFBDE8084001F044BCEF
:1010C0007828002010B50E4C0E4A2046002100F072
:1010D00055FA0D4BC4F85C320C4C0D4A20460021E9
:1010E00000F04CFA0B4BC4F85C320B4C0B4A00215D
:1010F000204600F043FA0A4BC4F85C3210BD00BF32
:10110000A8230020550F00080044004010260020AE
:10111000650F00080048004078280020750F00087F
:101120000078004038B53A4D037C002918BF0D46C1
:10113000012B0446C0F8645210D1364B984244D17A
:10114000354B1A6C42F400321A641A6E42F40032C3
:101150001A661B6E0B21262000F06AF8D4F85C2278
:101160002E492B688A424FEA530003D001F5806173
:101170008A424AD12A490144B5F90400B1FBF3F38C
:101180000028BEBF23F0070003F0070343EA400333
:10119000A9889360EB8843F0400313612B8943F0E7
:1011A0000103536141F4045343F02C03D36001F471
:1011B000A05100231360B1F5806F136853680CBF12
:1011C0007F23FF2384F8603238BD164B98420FD03E
:1011D000154B9842C2D1104B1A6C42F080421A64EF
:1011E0001A6E42F080421A661B6E0B215220B3E742
:1011F000094B1A6C42F480221A641A6E42F480225F
:101200001A661B6E0B212720A6E70849B3E700BF2B
:10121000483C0008A823002000380240001001408C
:1012200000BD0105102600207828002080DE800205
:1012300000F1604303F561430901C9B283F800136B
:10124000012200F01F039A4043099B0003F1604311
:1012500003F56143C3F880211A607047F8B515465D
:1012600082680669AA420B46816938BF8568761A8A
:10127000B54204460BD218462A46FFF735FDA3694E
:101280002B44A361A3685B1BA3602846F8BD0CD95F
:1012900018463246FFF728FDAF1BE1683A46304456
:1012A000FFF722FDE3683B44EBE718462A46FFF7C9
:1012B0001BFDE368E5E7000083689342F7B5154638
:1012C000044638BF8568D0E90460361AB5420BD2AF
:1012D0002A46FFF709FD63692B446361A36828462A
:1012E0005B1BA36003B0F0BD0DD932460191FFF73F
:1012F000FBFC0199E068AF1B3A463144FFF7F4FC70
:10130000E3683B44E9E72A46FFF7EEFCE368E4E7DD
:1013100010B50A440024C361029B8460C0E9000048
:10132000C0E90511C1600261036210BD08B5D0E9D2
:101330000532934201D1826882B9826801328260AB
:101340005A1C42611970D0E904329A4224BFC36822
:101350004361002100F0DAFE002008BD4FF0FF30AD
:10136000FBE7000070B5202304460E4683F3118886
:10137000A568A5B1A368A269013BA360531CA36142
:1013800015782269934224BFE368A361E3690BB136
:1013900020469847002383F31188284607E031460A
:1013A000204600F0A3FE0028E2DA85F3118870BD24
:1013B0002DE9F74F04460E4617469846D0F81C9084
:1013C0004FF0200A8AF311884FF0000B154665B1E3
:1013D0002A4631462046FFF741FF034660B94146A1
:1013E000204600F083FE0028F1D0002383F311880B
:1013F000781B03B0BDE8F08FB9F1000F03D0019066
:101400002046C847019B8BF31188ED1A1E448AF3CE
:101410001188DCE7C0E90511C160C3611144009B7C
:101420008260C0E90000016103627047F8B50446BC
:101430000D461646202383F31188A768A7B1A36839
:10144000013BA36063695A1C62611D70D4E90432D8
:101450009A4224BFE3686361E3690BB12046984771
:10146000002080F3118807E03146204600F03EFE60
:101470000028E2DA87F31188F8BD0000D0E90523DF
:101480009A4210B501D182687AB9826801328260CD
:101490005A1C82611C7803699A4224BFC368836125
:1014A000002100F033FE204610BD4FF0FF30FBE777
:1014B0002DE9F74F04460E4617469846D0F81C9083
:1014C0004FF0200A8AF311884FF0000B154665B1E2
:1014D0002A4631462046FFF7EFFE034660B94146F3
:1014E000204600F003FE0028F1D0002383F311888A
:1014F000781B03B0BDE8F08FB9F1000F03D0019065
:101500002046C847019B8BF31188ED1A1E448AF3CD
:101510001188DCE7026843681143016003B1184792
:10152000704700001430FFF743BF00004FF0FF3357
:101530001430FFF73DBF00003830FFF7B9BF00009F
:101540004FF0FF333830FFF7B3BF00001430FFF720
:1015500009BF00004FF0FF311430FFF703BF000058
:101560003830FFF763BF00004FF0FF323830FFF72D
:101570005DBF000000207047FFF7A4BD37B51546DA
:101580000E4A026000224260C0E9022201220446A3
:1015900002740B46009000F15C014FF4807214302D
:1015A000FFF7B6FE00942B464FF4807204F5AE713F
:1015B00004F13800FFF72EFF03B030BD5C3C00089B
:1015C00010B52023044683F31188FFF7ABFD0223F7
:1015D0002374002383F3118810BD000038B5C3695C
:1015E00004460D461BB904210844FFF793FF294622
:1015F00004F11400FFF79AFE002806DA201D4FF4CC
:101600008061BDE83840FFF785BF38BD0268436898
:101610001143016003B118477047000013B5446BD4
:10162000D4F894341A681178042915D1217C022940
:1016300012D11979128901238B4013420CD101A9CF
:1016400004F14C0001F03EFFD4F89444019B217951
:101650000246206800F0CEF902B010BD143001F04F
:10166000C1BE00004FF0FF33143001F0BBBE0000DC
:101670004C3001F093BF00004FF0FF334C3001F0CD
:101680008DBF0000143001F08FBE00004FF0FF311D
:10169000143001F089BE00004C3001F05FBF000043
:1016A0004FF0FF324C3001F059BF0000002070476E
:1016B00010B5D0F894341A6811780429044617D16B
:1016C000017C022914D15979528901238B4013429C
:1016D0000ED1143001F022FE024648B1D4F89444F1
:1016E0004FF4807361792068BDE8104000F070B954
:1016F00010BD0000406BFFF7DBBF0000704700002B
:101700007FB5124B036000234360C0E9023301251B
:1017100002260F4B057404460290019300F18402E7
:10172000294600964FF48073143001F0D3FD094B25
:101730000294CDE9006304F523724FF480732946C7
:1017400004F14C0001F09AFE04B070BD843C000826
:10175000F51600081D1600080B68202282F3118878
:101760000A7903EB820290614A79093243F8220038
:101770008A7912B103EB8203986102230374C0F8E3
:101780009414002383F311887047000038B5037F59
:10179000044613B190F85430ABB9201D0125022145
:1017A000FFF734FF04F1140025776FF0010100F01A
:1017B000B9FC84F8545004F14C006FF00101BDE80D
:1017C000384000F0AFBC38BD10B5012104460430EC
:1017D000FFF71CFF0023237784F8543010BD00006E
:1017E00038B504460025143001F08CFD04F14C009E
:1017F000257701F05BFE201D84F854500121FFF78E
:1018000005FF2046BDE83840FFF752BF90F844304E
:1018100003F06003202B07D190F84520212A4FF0D8
:10182000000303D81F2A06D800207047222AFBD1C4
:10183000C0E90E3303E0034A82630722C2630364F4
:10184000012070471122002037B5D0F894341A686F
:101850001178042904461AD1017C022917D119797B
:10186000128901238B40134211D100F14C05284607
:1018700001F0DCFE58B101A9284601F023FED4F89E
:101880009444019B21790246206800F0B3F803B02C
:1018900030BD0000F0B500EB810385B09E690446C1
:1018A0000D46FEB1202383F3118804EB8507301D1C
:1018B0000821FFF7ABFEFB685B691B6806F14C0073
:1018C0001BB1019001F00CFE019803A901F0FAFD93
:1018D000024648B1039B2946204600F08BF80023BE
:1018E00083F3118805B0F0BDFB685A691268002ABD
:1018F000F5D01B8A013B1340F1D104F14402EAE721
:10190000093138B550F82140DCB1202383F3118828
:10191000D4F894241368527903EB8203DB689B6943
:101920005D6845B104216018FFF770FE294604F197
:10193000140001F0FDFC2046FFF7BAFE002383F3FC
:10194000118838BD7047000001F0C0B80123037052
:101950000023C0E90133C36183620362C36243624F
:101960000363704738B50446202383F311880025AC
:10197000C0E90355C0E90555416001F0B7F80223FD
:10198000237085F3118838BD70B500EB81030546DF
:101990005069DA600E46144618B110220021FFF794
:1019A000C9F9A06918B110220021FFF7C3F9314627
:1019B0002846BDE8704001F063B90000826802F07B
:1019C000011282600022C0E90422826101F0E4B9C0
:1019D000F0B400EB81044789E4680125A4698D40D7
:1019E0003D43458123600023A2606360F0BC01F0A9
:1019F000FFB90000F0B400EB81040789E468012519
:101A000064698D403D43058123600023A2606360CB
:101A1000F0BC01F079BA000070B50223002504463D
:101A20000370C0E90255C0E90455C564856180F8BA
:101A3000345001F0C1F863681B6823B12946204681
:101A4000BDE87040184770BD037880F8503005231A
:101A5000037043681B6810B504460BB10421984716
:101A60000023A36010BD000090F85020436802706E
:101A70001B680BB1052118477047000070B590F83E
:101A80003430044613B1002380F8343004F14402AA
:101A9000204601F0A3F963689B68B3B994F8443019
:101AA00013F0600535D00021204601F0F5FB002140
:101AB000204601F0E7FB63681B6813B1062120464E
:101AC0009847062384F8343070BD20469847002894
:101AD000E4D0B4F84A30E26B9A4288BFE36394F9E9
:101AE0004430E56B002B4FF0200380F20381002D82
:101AF00000F0F280092284F8342083F31188002159
:101B0000D4E90E232046FFF775FF002383F31188E5
:101B1000DAE794F8452003F07F0343EA022340F21A
:101B20000232934200F0C58021D8B3F5807F48D0BF
:101B30000DD8012B3FD0022B00F09380002BB2D1A7
:101B400004F14C02A2630222E2632364C1E7B3F50D
:101B5000817F00F09B80B3F5407FA4D194F846309C
:101B6000012BA0D1B4F84C3043F0020332E0B3F5BE
:101B7000006F4DD017D8B3F5A06F31D0A3F5C06377
:101B8000012B90D8636894F846205E6894F847105B
:101B9000B4F848302046B047002884D04368A36397
:101BA0000368E3631AE0B3F5106F36D040F60242E3
:101BB00093427FF478AF5C4BA3630223E36300237B
:101BC000C3E794F84630012B7FF46DAFB4F84C3086
:101BD00023F00203C4E90E55A4F84C30256478E7DD
:101BE000B4F84430B3F5A06F0ED194F8463084F8C1
:101BF0004E30204601F038F863681B6813B10121AC
:101C000020469847032323700023C4E90E339CE742
:101C100004F14F03A3630123C3E72378042B10D1FE
:101C2000202383F311882046FFF7C8FE85F311882F
:101C30000321636884F84F5021701B680BB1204664
:101C4000984794F84630002BDED084F84F300423B8
:101C5000237063681B68002BD6D00221204698476A
:101C6000D2E794F848301D0603F00F0120460AD54C
:101C700001F0A6F8012804D002287FF414AF2B4B02
:101C80009AE72B4B98E701F08DF8F3E794F846308C
:101C9000002B7FF408AF94F8483013F00F01B3D055
:101CA0001A06204602D501F00BFBADE701F0FEFA63
:101CB000AAE794F84630002B7FF4F5AE94F848304C
:101CC00013F00F01A0D01B06204602D501F0E4FA64
:101CD0009AE701F0D7FA97E7142284F8342083F3C7
:101CE00011882B462A4629462046FFF771FE85F3C8
:101CF0001188E9E65DB1152284F8342083F3118858
:101D00000021D4E90E232046FFF762FEFDE60B22F8
:101D100084F8342083F311882B462A46294620462E
:101D2000FFF768FEE3E700BFB43C0008AC3C0008E6
:101D3000B03C000838B590F834300446002B3ED053
:101D4000063BDAB20F2A34D80F2B32D8DFE803F083
:101D50003731310822323131313131313131373798
:101D6000C56BB0F84A309D4214D2C3681B8AB5FBDC
:101D7000F3F203FB12556DB9202383F311882B4630
:101D80002A462946FFF736FE85F311880A2384F890
:101D900034300EE0142384F83430202383F3118888
:101DA00000231A4619462046FFF712FE002383F34C
:101DB000118838BD036C03B198470023E7E7002181
:101DC000204601F069FA0021204601F05BFA6368C1
:101DD0001B6813B10621204698470623D7E7000069
:101DE00010B590F83430142B044629D017D8062BA0
:101DF00005D001D81BB110BD093B022BFBD8002137
:101E0000204601F049FA0021204601F03BFA6368C0
:101E10001B6813B1062120469847062319E0152BAD
:101E2000E9D10B2380F83430202383F31188002379
:101E30001A461946FFF7DEFD002383F31188DAE71F
:101E4000C3689B695B68002BD5D1036C03B19847CD
:101E5000002384F83430CEE7024B0022C3E900337C
:101E60009A607047E02A0020002303748268054BC3
:101E70001B6899689142FBD25A6803604260106007
:101E800058607047E02A002008B5202383F31188AA
:101E9000037C032B05D0042B0DD02BB983F31188C1
:101EA00008BD436900221A604FF0FF334361FFF71A
:101EB000DBFF0023F2E7D0E9003213605A60F3E75A
:101EC000002303748268054B1B6899689142FBD814
:101ED0005A6803604260106058607047E02A002032
:101EE000054B19690874186802681A605360186114
:101EF00001230374FEF70ABAE02A002030B54B1C18
:101F00000B4D87B0044610D02B690A4A01A800F097
:101F100025F92046FFF7E4FF049B13B101A800F068
:101F200059F92B69586907B030BDFFF7D9FFF8E7B9
:101F3000E02A0020891E000838B50C4D41612B694C
:101F400081689A689142044603D8BDE83840FFF79B
:101F50008BBF1846FFF7B4FF01232C6101462374A1
:101F60002046BDE83840FEF7D1B900BFE02A002086
:101F7000044B1A681B6990689B68984294BF0020C4
:101F800001207047E02A002010B5084C2368206922
:101F90001A6822605460012223611A74FFF790FFCF
:101FA00001462069BDE81040FEF7B0B9E02A0020E4
:101FB00008B5FFF7DDFF18B1BDE80840FFF7E4BF43
:101FC00008BD0000FFF7E0BFFEE7000010B50C4CB5
:101FD000FFF742FF00F0B4F80A498022204600F0E3
:101FE0003BF8012344F8180C037400F089FC00232B
:101FF00083F3118862B60448BDE8104000F04CB885
:10200000082B0020B83C0008C83C000800F01CB9B0
:10201000EFF3118020B9EFF30583202282F31188BA
:102020007047000010B530B9EFF30584C4F308041D
:1020300014B180F3118810BDFFF7BAFF84F3118843
:10204000F9E70000034A516853685B1A9842FBD8CD
:10205000704700BF001000E08260022202827047D9
:102060008368A3F17C0243F80C2C026943F83C2CF2
:10207000426943F8382C074A43F81C2CC26843F8DD
:10208000102C022203F8082C002203F8072CA3F1DD
:10209000180070472503000810B5202383F311882A
:1020A000FFF7DEFF00210446FFF746FF002383F31E
:1020B0001188204610BD0000024B1B6958610F209B
:1020C000FFF70EBFE02A0020202383F31188FFF7DB
:1020D000F3BF000008B50146202383F311880820D0
:1020E000FFF70CFF002383F3118808BD49B1064BAD
:1020F00042681B6918605A60136043600420FFF750
:10210000FDBE4FF0FF307047E02A00200368984280
:1021100006D01A680260506059611846FFF7A4BEE5
:102120007047000038B504460D462068844200D14F
:1021300038BD036823605C604561FFF795FEF4E7F6
:10214000054B03F11402C3E905224FF0FF310022D1
:10215000C3E90712704700BFE02A002070B51C4E8B
:10216000C0E9032305460C4601F096FA334653F8BE
:10217000142F9A420DD13062C5E901242A600A2C3D
:102180002CBF00190A30C6E90555BDE8704001F0C2
:102190006DBA316A431AE31838BF1C469368A342EC
:1021A00002D9081901F072FA73699A6894420CD83E
:1021B0005A68AC602B606A6015609A685D60121B9B
:1021C0009A604FF0FF33F36170BD1B68A41AECE70F
:1021D000E02A002038B51B4C636998420DD0D0E945
:1021E000003213605A6000228168C2609A680A4413
:1021F0009A604FF0FF33E36138BD2246036842F82E
:10220000143F002193425A60C16003D1BDE83840B9
:1022100001F036BA9A688168256A0A449A6001F02A
:102220003BFA63699A68411B8A42E5D9AB181D1ACB
:10223000092D206A98BF01F10A02BDE83840104418
:1022400001F024BAE02A00202DE9F041184C0027C3
:1022500004F11406656901F01FFA236AAA68C11A1D
:102260008A4215D813442362D5E9003213605A60BC
:102270006369D5F80C80EF60B34201D101F000FA38
:1022800087F311882869C047202383F31188E1E789
:102290006169B14209D013441B1ABDE8F0410A2B11
:1022A0002CBFC0180A3001F0F1B9BDE8F08100BFC1
:1022B000E02A002000207047FEE700007047000081
:1022C0004FF0FF307047000002290CD0032904D0E2
:1022D0000129074818BF00207047032A05D8054880
:1022E00000EBC2007047044870470020704700BFF1
:1022F000AC3D000820220020603D000870B59AB077
:102300000546084601A9144600F0C2F801A8FEF7E8
:1023100009FD431C5B00C5E9003400222370032340
:102320006370C6B201AB02341046D1B28E4204F1E2
:10233000020401D81AB070BD13F8011B04F8021C86
:1023400004F8010C0132F0E708B5202383F311886B
:102350000348FFF779FA002383F3118808BD00BF13
:10236000982C002090F8443003F01F02012A07D176
:1023700090F845200B2A03D10023C0E90E3315E065
:1023800003F06003202B08D1B0F848302BB990F847
:102390004520212A03D81F2A04D8FFF737BA222A5A
:1023A000EBD0FAE7034A82630722C2630364012089
:1023B000704700BF1822002007B5052917D8DFE8AD
:1023C00001F0191603191920202383F31188104AEC
:1023D00001900121FFF7D8FA01980E4A0221FFF778
:1023E000D3FA0D48FFF7FCF9002383F3118803B0FB
:1023F0005DF804FB202383F311880748FFF7C6F933
:10240000F2E7202383F311880348FFF7DDF9EBE7B8
:10241000003D0008243D0008982C002038B50C4DE4
:102420000C4C0D492A4604F10800FFF767FF05F13F
:10243000CA0204F110000949FFF760FF05F5CA72EE
:1024400004F118000649BDE83840FFF757BF00BF48
:102450006031002020220020E03C0008EA3C000817
:10246000F53C000870B5044608460D46FEF75AFCD8
:10247000C6B22046013403780BB9184670BD324607
:102480002946FEF73BFC0028F3D10120F6E70000C7
:102490002DE9F84F05460C46FEF744FC2949C6B223
:1024A0002846FFF7DFFF08B1013EF6B2264928466D
:1024B000FFF7D8FF08B11036F6B2632E0DD8DFF85B
:1024C0008490DFF884A0214FDFF888B0DFF888809F
:1024D0002E7846B92670BDE8F88F29462046BDE81B
:1024E000F84F01F073BB252E28D107224946284614
:1024F000FEF704FC40B9D8F800302360B8F8043087
:10250000A38007350634E3E7082251462846FEF744
:10251000F5FB98B90E4BA21C197809090232C95D66
:1025200002F8041C13F8011B01F00F015B45C95DA3
:1025300002F8031CF0D118340835C9E704F8016B20
:102540000135C5E7CC3D0008F53C0008DB3D00083F
:10255000107AFF1F1C7AFF1FD43D0008BFF34F8F76
:10256000024AD368DB03FCD4704700BF003C024042
:1025700008B5094B1B7873B9FFF7F0FF074B1A69D1
:10258000002ABFBF064A5A6002F188325A601A68B0
:1025900022F480621A6008BDBE330020003C024075
:1025A0002301674508B50B4B1B7893B9FFF7D6FF9E
:1025B000094B1A6942F000421A611A6842F48052CB
:1025C0001A601A6822F480521A601A6842F4806213
:1025D0001A6008BDBE330020003C02401728F0B549
:1025E00016D80C4C0C4923787BB90C4D0E46182399
:1025F0004FF0006255F8047B46F8042B013B13F0C2
:10260000FF033A44F6D10123237051F82000F0BDB6
:102610000020FCE720340020C0330020EC3D0008FF
:10262000014B53F820007047EC3D0008182070471C
:10263000172810B5044601D9002010BDFFF7CEFFC2
:10264000064B53F824301844C21A0BB90120F4E7A2
:1026500012680132F0D1043BF6E700BFEC3D000800
:10266000172870B504462FD8FFF7D2FC1749FFF79B
:1026700075FFFFF77DFFF323CB600C23B4FBF3F270
:1026800003FB1245D30143EAC503DBB243F40073F5
:1026900043F002030B610B6943F480330B61064680
:1026A0002046FFF75BFFFFF799FF094B53F8241013
:1026B00000F0E8F83046FFF775FFFFF7B3FC20465F
:1026C000BDE87040FFF7B4BF002070BD003C024081
:1026D000EC3D000812F001032DE9F04105460E46DD
:1026E00014464BD18218B2F1026F61D8314B1B688E
:1026F00013F001035CD0304FFFF78AFCFFF738FF7F
:10270000F323FB60FFF72AFF314640F20128032C38
:1027100018D824F00104284E0C446D1A40F2011818
:10272000A142336905EB01072AD123F0010333618C
:10273000FFF738FFFFF776FC0120BDE8F081043C8D
:102740000435E4E7AB07E4D13B6923F440733B6114
:102750003B6943EA08033B6151F8046B2E60BFF309
:102760004F8FFFF7FBFE2B689E42E8D03B6923F0BA
:1027700001033B61FFF716FFFFF754FC0020DCE785
:1027800023F440733361336943EA080333610B88F0
:102790003B80BFF34F8FFFF7E1FE3F8831F8023BEC
:1027A000BFB2BB42BCD0336923F001033361E1E720
:1027B0001846C2E700380240003C0240084908B50C
:1027C0000B7828B11BB9FFF7D3FE01230B7008BDAE
:1027D000002BFCD0BDE808400870FFF7E3BE00BF47
:1027E000BE33002010B50244064BD2B2904200D155
:1027F00010BD441C00B253F8200041F8040BE0B2B5
:10280000F4E700BF502800400F4B30B51C6F240484
:1028100007D41C6F44F400741C671C6F44F400441C
:102820001C670A4C236843F4807323600244084BFE
:10283000D2B2904200D130BD441C00B251F8045BCA
:1028400043F82050E0B2F4E7003802400070004046
:102850005028004007B5012201A90020FFF7C2FF60
:10286000019803B05DF804FB13B50446FFF7F2FFCF
:10287000A04205D0012201A900200194FFF7C4FF66
:1028800002B010BD70470000094B5A88B2F5805F56
:1028900010460BD022F0020341F20102934205D010
:1028A00041F20703C31A584258417047012070474C
:1028B000002004E0034B1A681AB9034AD2F87428BE
:1028C0001A607047243400200030024008B5FFF73A
:1028D000F1FF024B1868C0F3407008BD243400209B
:1028E000EFF3098305494A6B22F001024A6368331A
:1028F00083F30988002383F31188704700EF00E019
:10290000202080F3118862B60C4B0D4AD96821F45F
:10291000E0610904090C0A43DA60D3F8FC20094994
:1029200042F08072C3F8FC200A6842F001020A609B
:102930001022DA7783F82200704700BF00ED00E034
:102940000003FA05001000E010B5202383F311887E
:102950000E4B5B6813F4006314D0F1EE103AEFF302
:102960000984683C4FF08073E361094BDB6B23669D
:1029700084F30988FFF7FCFA10B1064BA36110BD80
:10298000054BFBE783F31188F9E700BF00ED00E09A
:1029900000EF00E0370300083A030008704700002A
:1029A000FEE700000A4B0B480B4A90420BD30B4B3F
:1029B000DA1C121AC11E22F003028B4238BF002219
:1029C0000021FEF7B7B953F8041B40F8041BECE7ED
:1029D000B83F000820350020203500202035002099
:1029E0007047000070B5D0E915439E6800224FF093
:1029F000FF3504EB42135101D3F800090028BEBF94
:102A0000D3F8000940F08040C3F80009D3F8000B68
:102A10000028BEBFD3F8000B40F08040C3F8000B85
:102A2000013263189642C3F80859C3F8085BE0D234
:102A30004FF00113C4F81C3870BD00001D4B03EBB0
:102A400080022DE9F043D2F80CC05D6DDCF8142053
:102A5000461CD2F800E005EB063605EB401851683D
:102A600071450AD3D5F83438012202FA00F023EA7E
:102A70000000C5F83408BDE8F083BCF81040AEEBA8
:102A80000103A34228BF2346D8F81849A4B2B3EBE8
:102A9000840FF0D89468A4F1040959F8047F3760D2
:102AA000A4EB09071F44042FF7D81C440B4494607F
:102AB0005360D4E728340020890141F020010161EE
:102AC00003699B06FCD41220FFF7BCBA10B5054C75
:102AD0002046FEF73BFF4FF0A0436365024BA36522
:102AE00010BD00BF28340020703E000870B5037888
:102AF000012B054650D12A4B446D98421BD1294BDE
:102B00005A6B42F080025A635A6D42F080025A6555
:102B10005A6D5A6942F080025A615A6922F0800265
:102B20005A610E2143205B69FEF782FB1E4BE36076
:102B30001E4BC4F800380023C4F8003EC0232360B5
:102B40006E6D4FF45023A3633369002BFCDA01232D
:102B500033610C20FFF776FA3369DB07FCD41220CF
:102B6000FFF770FA3369002BFCDA0026A6602846CE
:102B7000FFF738FF6B68C4F81068DB68C4F81468A6
:102B8000C4F81C684BB90A4BA3614FF0FF33636173
:102B9000A36843F00103A36070BD064BF4E700BFD8
:102BA0002834002000380240401400400300200276
:102BB000003C30C0083C30C0F8B5446D05460021EB
:102BC0002046FFF779FFA96D00234FF001128F68AF
:102BD000C4F834384FF00066C4F81C284FF0FF30BA
:102BE00004EB431201339F42C2F80069C2F8006B44
:102BF000C2F80809C2F8080BF2D20B686A6DEB65DF
:102C0000636210231361166916F01006FBD11220BF
:102C1000FFF718FAD4F8003823F4FE63C4F800383C
:102C2000A36943F4402343F01003A3610923C4F8CC
:102C30001038C4F814380A4BEB604FF0C043C4F8A6
:102C4000103B084BC4F8003BC4F81069C4F80039C5
:102C5000EB6D03F1100243F48013EA65A362F8BD43
:102C60004C3E000840800010426D90F84E10D2F8A3
:102C7000003823F4FE6343EA0113C2F800387047BA
:102C80002DE9F84300EB8103456DDA68166806F01C
:102C90000306731E022B05EB41130C4680460FFA08
:102CA00081F94FEA41104FF00001C3F8101B4FF0BB
:102CB000010104F1100398BFB60401FA03F391690E
:102CC0008EBF334E06F1805606F5004600293AD0F5
:102CD000578A04F15801490137436F50D5F81C1841
:102CE0000B43C5F81C382B180021C3F81019536981
:102CF0000127611EA7409BB3138A928B9B08012A70
:102D000088BF5343D8F85C20981842EA034301F186
:102D1000400205EB8202C8F85C0021465360284659
:102D2000FFF7CAFE08EB8900C3681B8A43EA845395
:102D3000483464011E432E51D5F81C381F43C5F892
:102D40001C78BDE8F88305EB4917D7F8001B21F480
:102D50000041C7F8001BD5F81C1821EA0303C0E79F
:102D600004F13F0305EB83030A4A5A6028462146D3
:102D7000FFF7A2FE05EB4910D0F8003923F4004319
:102D8000C0F80039D5F81C3823EA0707D7E700BF99
:102D90000080001000040002826D1268C265FFF717
:102DA00021BE00005831436D49015B5813F40040C7
:102DB00004D013F4001F0CBF022001207047000054
:102DC0004831436D49015B5813F4004004D013F4BB
:102DD000001F0CBF022001207047000000EB8101A2
:102DE000CB68196A0B6813604B685360704700002A
:102DF00000EB810330B5DD68AA691368D36019B9A7
:102E0000402B84BF402313606B8A1468426D1C44BE
:102E1000013CB4FBF3F46343033323F0030302EBFD
:102E2000411043EAC44343F0C043C0F8103B2B6851
:102E300003F00303012B09B20ED1D2F8083802EBDC
:102E4000411013F4807FD0F8003B14BF43F080534F
:102E500043F00053C0F8003B02EB4112D2F8003BB4
:102E600043F00443C2F8003B30BD00002DE9F041BF
:102E7000244D6E6D06EB40130446D3F8087BC3F86F
:102E8000087B38070AD5D6F81438190706D505EB9C
:102E900084032146DB6828465B689847FA071FD5FC
:102EA000D6F81438DB071BD505EB8403D968CCB9F9
:102EB0008B69488A5A68B2FBF0F600FB16228AB981
:102EC0001868DA6890420DD2121AC3E90024202350
:102ED00083F311880B482146FFF78AFF84F311889A
:102EE000BDE8F081012303FA04F26B8923EA0203AF
:102EF0006B81CB68002BF3D021460248BDE8F0413E
:102F0000184700BF2834002000EB810370B5DD684E
:102F1000436D6C692668E6604A0156BB1A444FF45B
:102F20000020C2F810092A6802F00302012A0AB23E
:102F30000ED1D3F8080803EB421410F4807FD4F8C4
:102F4000000914BF40F0805040F00050C4F8000960
:102F500003EB4212D2F8000940F00440C2F8000925
:102F6000D3F83408012202FA01F10143C3F83418FE
:102F700070BD19B9402E84BF4020206020682E8A81
:102F80008419013CB4FBF6F440EAC44040F0005020
:102F90001A44C6E7F8B504461E48456D05EB4413D0
:102FA000D3F80869C3F80869F10717D5D5F81038C0
:102FB000DA0713D500EB8403D9684B691F68DA6818
:102FC000974218D2D21B00271A605F60202383F338
:102FD00011882146FFF798FF87F31188330617D52C
:102FE000D5F834280123A340134211D02046BDE870
:102FF000F840FFF723BD012303FA04F2038923EA13
:10300000020303818B68002BE8D021469847E5E74F
:10301000F8BD00BF283400202DE9F74F984C666DAD
:103020007569B3691D4015F48058756107D0204655
:10303000FEF7F2FC03B0BDE8F04FFFF785BC002DB2
:1030400012DAD6F8003E8E489F071EBFD6F8003E23
:1030500023F00303C6F8003ED6F8043823F001033A
:10306000C6F80438FEF700FD280505D58448FFF7AB
:10307000B9FC8348FEF7E8FCA9040CD5D6F808385B
:1030800013F0060FF36823F470530CBF43F410538E
:1030900043F4A053F3602A0704D56368DB680BB1DF
:1030A00077489847EB0274D4AF0227D5D4F85490F0
:1030B000DFF8CCB100274FF0010A09EB4712D2F834
:1030C000003B03F44023B3F5802F11D1D2F8003B2D
:1030D000002B0DDA62890AFA07F322EA03036381FF
:1030E00004EB8703DB68DB6813B139465846984721
:1030F000A36D01379B68FFB29F42DED9E80617D562
:10310000676D3A6AC2F30A1002F00F0302F4F0127C
:10311000B2F5802F00F08880B2F5402F08D104EB83
:1031200083030022DB681B6A07F5805790426DD14C
:103130002903D6F8184813D5E20302D50020FFF77B
:1031400095FEA30302D50120FFF790FE670302D589
:103150000220FFF78BFE260302D50320FFF786FE31
:103160006D037FF567AFE00702D50020FFF712FF80
:10317000A10702D50120FFF70DFF620702D502204B
:10318000FFF708FF23077FF555AF0320FFF702FF86
:1031900050E7636DDFF8E8B0019300274FF0010AB4
:1031A000A36D9B685FFA87F999453FF67DAF019B58
:1031B00003EB4913D3F8002902F44022B2F5802F23
:1031C00022D1D3F80029002A1EDAD3F8002942F0D0
:1031D0009042C3F80029D3F80029002AFBDB606D78
:1031E0004946FFF769FC22890AFA09F322EA030338
:1031F000238104EB8903DB689B6813B14946584679
:1032000098474846FFF71AFC0137C9E7910708BFFE
:10321000D7F80080072A98BF03F8018B02F101025A
:1032200098BF4FEA182881E7023304EB830207F5C1
:1032300080575268D2F818C0DCF80820DCE9001C7E
:10324000A1EB0C0C002188420AD104EB83046368D3
:103250009B699A6802449A605A6802445A6067E718
:1032600011F0030F08BFD7F800808C4588BF02F823
:10327000018B01F1010188BF4FEA1828E3E700BF85
:1032800028340020436D03EB4111D1F8003B43F497
:103290000013C1F8003B7047436D03EB4111D1F8B7
:1032A000003943F40013C1F800397047436D03EB54
:1032B0004111D1F8003B23F40013C1F8003B7047E3
:1032C000436D03EB4111D1F8003923F40013C1F829
:1032D0000039704730B5039C0172043304FB0325A9
:1032E000C0E90653049B03630021059BC160C0E94C
:1032F0000000C0E90422C0E90842C0E90A114363A2
:1033000030BD0000416A0022C0E90411C0E90A2270
:10331000C2606FF00101FEF705BF0000D0E9043282
:10332000934201D1C2680AB9181D70470020704746
:1033300003691960C2680132C260C26913448269BC
:103340000361934224BF436A03610021FEF7DEBE9E
:1033500038B504460D46E3683BB16269131D126837
:10336000A3621344E362002007E0237A33B92946BD
:103370002046FEF7BBFE0028EDDA38BD6FF00100F5
:10338000FBE70000C368C269013BC36043691344A3
:1033900082694361934224BF436A4361002383628D
:1033A000036B03B11847704770B52023044683F3BD
:1033B0001188866A3EB9FFF7CBFF054618B186F340
:1033C0001188284670BDA36AE26A13F8015BA36204
:1033D000934202D32046FFF7D5FF002383F31188E1
:1033E000EFE700002DE9F84F04460E4617469846D1
:1033F0004FF0200989F311880025AA46D4F828B097
:10340000BBF1000F09D141462046FFF7A1FF20B1D3
:103410008BF311882846BDE8F88FD4E90A12A7EB90
:10342000050B521A934528BF9346BBF1400F1BD999
:10343000334601F1400251F8040B43F8040B91426A
:10344000F9D1A36A40334036A3624035D4E90A2358
:103450009A4202D32046FFF795FF8AF31188BD42B6
:10346000D8D289F31188C9E730465A46FDF73CFCAB
:10347000A36A5B445E44A3625D44E7E710B5029C27
:103480000172043304FB0321C0E906130023C0E9E1
:103490000A33039B0363049BC460C0E90000C0E9D6
:1034A0000422C0E90842436310BD0000026AC26002
:1034B000426AC0E904220022C0E90A226FF0010139
:1034C000FEF730BED0E904239A4201D1C26822B986
:1034D000184650F8043B0B6070470020704700000E
:1034E000C368C2690133C36043691344826943619D
:1034F000934224BF436A43610021FEF707BE0000E8
:1035000038B504460D46E3683BB123691A1DA26233
:10351000E2691344E362002007E0237A33B92946C5
:103520002046FEF7E3FD0028EDDA38BD6FF001001C
:10353000FBE7000003691960C268013AC260C26912
:10354000134482690361934224BF436A03610023E9
:103550008362036B03B118477047000070B52023E6
:103560000D460446114683F31188866A2EB9FFF78B
:10357000C7FF10B186F3118870BDA36A1D70A36ADE
:10358000E26A01339342A36204D3E169204604391D
:10359000FFF7D0FF002080F31188EDE72DE9F84F09
:1035A00004460D46904699464FF0200A8AF311884A
:1035B0000026B346A76A4FB949462046FFF7A0FF49
:1035C00020B187F311883046BDE8F88FD4E90A07A7
:1035D0003A1AA8EB0607974228BF1746402F1BD977
:1035E00005F1400355F8042B40F8042B9D42F9D116
:1035F000A36A4033A3624036D4E90A239A4204D333
:10360000E16920460439FFF795FF8BF311884645A1
:10361000D9D28AF31188CDE729463A46FDF764FBF3
:10362000A36A3B443D44A3623E44E5E7D0E904235A
:103630009A4217D1C3689BB1836A8BB1043B9B1A32
:103640000ED01360C368013BC360C3691A44836929
:1036500002619A4224BF436A03610023836201230B
:10366000184670470023FBE700F08EB8034B00229A
:1036700058631A610222DA60704700BF000C0040F4
:10368000014B0022DA607047000C0040014B586388
:10369000704700BF000C0040014B586A704700BFE4
:1036A000000C00404B6843608B688360CB68C3604C
:1036B0000B6943614B6903628B6943620B6803606A
:1036C0007047000008B5264B26481A6940F2FF11E2
:1036D0000A431A611A6922F4FF7222F001021A6188
:1036E0001A691A6B0A431A631A6D0A431A651E4A4D
:1036F0001B6D1146FFF7D6FF02F11C0100F580603B
:10370000FFF7D0FF02F1380100F58060FFF7CAFF34
:1037100002F1540100F58060FFF7C4FF02F170016F
:1037200000F58060FFF7BEFF02F18C0100F58060BC
:10373000FFF7B8FF02F1A80100F58060FFF7B2FFC4
:1037400002F1C40100F58060FFF7ACFF02F1E00177
:1037500000F58060FFF7A6FFBDE8084000F09EB8C6
:1037600000380240000002407C3E000808B500F02E
:103770000DFAFEF72BFCFFF79DF8BDE80840FEF7B9
:103780004DBE000070470000104B1A6C42F008025A
:103790001A641A6E42F008021A660D4A1B6E93688C
:1037A00043F0080393600B4B53229A624FF0FF32B1
:1037B000DA6200229A615A63DA605A6001225A6121
:1037C00008211A603220FDF733BD00BF00380240E7
:1037D000002004E0000C0040094A08B51169D368D4
:1037E0000B40D9B2C9439B07116107D5202383F34E
:1037F0001188FEF70BFC002383F3118808BD00BF7E
:10380000000C004008B5FFF7E7FFBDE80840FFF7F0
:103810009BB800001F4B1A696FEAC2526FEAD2527E
:103820001A611A69C2F308021A614FF0FF301A696F
:103830005A69586100215A6959615A691A6A62F0D5
:1038400080521A621A6A02F080521A621A6A5A6A1E
:1038500058625A6A59625A6A1A6C42F080521A6463
:103860001A6E42F080521A661A6E0B4A106840F4C3
:1038700080701060186F00F44070B0F5007F1EBFBC
:103880004FF4803018671967536823F4007353604E
:1038900000F05CB90038024000700040344B4FF03B
:1038A00080521A64334A4FF4404111601A6842F062
:1038B00001021A601A689107FCD59A6822F0030287
:1038C0009A602B4B9A6812F00C02FBD1196801F038
:1038D000F90119609A601A6842F480321A601A6815
:1038E0009203FCD55A6F42F001025A67204B5A6F7F
:1038F0009007FCD5204A5A601A6842F080721A601C
:103900001C4A53685904FCD5194B1A689201FCD51E
:103910001A4A9A600322C3F88C20194B1A68194B73
:103920009A42194B21D1194A1168194A91421CD166
:1039300040F205121A60144A136803F00F03052BB6
:10394000FAD10B4B9A6842F002029A609A6802F030
:103950000C02082AFAD15A6C42F480425A645A6E18
:1039600042F480425A665B6E704740F20572E1E7AE
:103970000038024000700040185440070094883816
:10398000002004E011640020003C024000ED00E053
:1039900041C20F41084A08B5516913680B4003F052
:1039A0000103536123B1054A13680BB1506898476E
:1039B000BDE80840FEF7C8BF003C0140A03400202D
:1039C000084A08B5516913680B4003F002035361BC
:1039D00023B1054A93680BB1D0689847BDE8084009
:1039E000FEF7B2BF003C0140A0340020084A08B5F1
:1039F000516913680B4003F00403536123B1054A76
:103A000013690BB150699847BDE80840FEF79CBFA9
:103A1000003C0140A0340020084A08B551691368F1
:103A20000B4003F00803536123B1054A93690BB1BE
:103A3000D0699847BDE80840FEF786BF003C0140CA
:103A4000A0340020084A08B5516913680B4003F000
:103A50001003536123B1054A136A0BB1506A9847AA
:103A6000BDE80840FEF770BF003C0140A0340020D4
:103A7000174B10B55A691C68144004F478725A61E7
:103A8000A30604D5134A936A0BB1D06A984760061F
:103A900004D5104A136B0BB1506B9847210604D51F
:103AA0000C4A936B0BB1D06B9847E20504D5094AD9
:103AB000136C0BB1506C9847A30504D5054A936C61
:103AC0000BB1D06C9847BDE81040FEF73DBF00BF7A
:103AD000003C0140A03400201A4B10B55A691C6804
:103AE000144004F47C425A61620504D5164A136DF1
:103AF0000BB1506D9847230504D5134A936D0BB154
:103B0000D06D9847E00404D50F4A136E0BB1506E88
:103B10009847A10404D50C4A936E0BB1D06E984718
:103B2000620404D5084A136F0BB1506F9847230401
:103B300004D5054A936F0BB1D06F9847BDE810408C
:103B4000FEF702BF003C0140A0340020062108B56A
:103B50000846FDF76DFB06210720FDF769FB0621EE
:103B60000820FDF765FB06210920FDF761FB062112
:103B70000A20FDF75DFB06211720FDF759FBBDE884
:103B8000084006212820FDF753BB000008B5FFF7C9
:103B900041FE00F00DF8FDF7EFFCFDF7D5FEFDF757
:103BA000ADFDFFF7EFFDBDE80840FFF75DBD00008C
:103BB0000023054A19460133102BC2E9001102F116
:103BC0000802F8D1704700BFA0340020034611F866
:103BD000012B03F8012B002AF9D1704753544D33C0
:103BE00032463F3F3F00000053544D33324634309D
:103BF000780053544D3332463432780053544D33A9
:103C0000324634343658580000000000DC3B0008CF
:103C10003F00000013040000E83B00083F000000E4
:103C200019040000F23B00083F00000021040000DE
:103C3000FC3B00083F000000982C0020A823002037
:103C400010260020782800200096000000000000C8
:103C50000000000000000000000000000000000064
:103C6000411500082D1500086915000855150008B4
:103C7000611500084D1500083915000825150008C4
:103C80007515000800000000791600086516000888
:103C9000A11600088D160008991600088516000860
:103CA000711600085D160008AD160008000000003F
:103CB00001000000000000006D61696E000000005E
:103CC00069646C6500000000C03C0008202B0020E7
:103CD000982C002001000000C91F0008000000000F
:103CE0004172647550696C6F740025424F415244B3
:103CF000252D424C002553455249414C25000000DA
:103D000002000000000000009518000801190008DA
:103D1000400040003031002040310020020000000F
:103D2000000000000300000000000000451900082A
:103D300000000000100000005031002000000000D2
:103D400001000000000000002834002001010200F2
:103D5000B9230008C9220008652300084923000888
:103D600043000000683D000809024300020100C052
:103D700032090400000102020100052400100105BF
:103D80002401000104240202052406000107058223
:103D9000030800FF09040100020A000000070501F2
:103DA00002400000070581024000000012000000F0
:103DB000B43D0008120110010200004009124157F1
:103DC00000020102030100000403090425424F41DF
:103DD00052442500505834464D550030313233346A
:103DE00035363738394142434445460000400000EB
:103DF0000040000000400000004000000000010002
:103E000000000200000002000000020000000200AA
:103E1000000002000000020000000200004000005C
:103E200000400000004000000040000000000100D1
:103E3000000002000000020000000200000002007A
:103E4000000002000000020000000200000000006C
:103E50007D1A0008351D0008E11D000840004000E3
:103E600088340020883400200100000098340020AD
:103E70008000000040010000030000000000812AD3
:103E800000020000AAAAAAAA00000024FFFF000066
:103E90000000000000A00A00000000000000000078
:103EA000AAAAAAAA00000000FFFF0000000000006C
:103EB000000000001500005400000000AAAAAAAAF1
:103EC00015000054FFFF000000000000000000008B
:103ED00080699A0100000000AAAA8AAA40555501EB
:103EE000FFFF000000707007777000000081020083
:103EF00000000000AAAAAAAA00410100FFFF0000DA
:103F00000000008008000000000000000000000029
:103F1000AAAAAAAA00000000FFFF000000000000FB
:103F2000000000000000000000000000AAAAAAAAE9
:103F300000000000FFFF0000000000000000000083
:103F400000000000000000000A0000000000000067
:103F5000030000000000000000000000000000005E
:103F60000000000000000000000000000000000051
:103F70000000000000000000090000000000000038
:103F800000C01F0000000000FF00960000000008B5
:103F9000009600000000080004000000C83D000872
:103FA0000000000000000000000000000000000011
:083FB000000000000000000009
:00000001FF
